:020000040800F2
:10000000A8060020690400087102000873020008B5
:10001000770200087B0200087F0200080000000051
:100020000000000000000000000000008302000843
:10003000850200080000000087020008890200080D
:100040008304000883040008830400088304000874
:100050008304000883040008830400088304000864
:100060008304000883040008830400088304000854
:100070008304000883040008830400088304000844
:100080008304000883040008830400088304000834
:100090008304000883040008830400088304000824
:1000A0008304000883040008830400088304000814
:1000B0008304000883040008830400088304000804
:1000C00083040008830400088304000883040008F4
:1000D00083040008830400088304000883040008E4
:1000E00083040008830400088304000883040008D4
:1000F00083040008830400088304000883040008C4
:1001000083040008830400088304000883040008B3
:1001100083040008830400088304000883040008A3
:100120008304000883040008830400088304000893
:1001300000F002F800F03AF80AA090E8000C8244BF
:100140008344AAF10107DA4501D100F02FF8AFF29C
:10015000090EBAE80F0013F0010F18BFFB1A43F0A5
:10016000010318471815000038150000103A24BF85
:1001700078C878C1FAD8520724BF30C830C144BF0C
:1001800004680C607047000000230024002500264E
:10019000103A28BF78C1FBD8520728BF30C148BFEA
:1001A0000B6070471FB51FBD10B510BD01F01FFAE1
:1001B0001146FFF7F7FF00F009F801F03DFA03B42C
:1001C000FFF7F2FF03BC01F041FA0000482001F004
:1001D000B7F900F0DBFE00F028FF01F02BF9BB209F
:1001E0001E49C8714FF47A7001F0C4F935E0082156
:1001F0001A4801F02AF90421194800F0CEFA4FF408
:10020000FA7001F0B7F90421154800F0C8FA154852
:100210000178154801F040F9D8B11348C079BB28DE
:100220000ED14FF48071114800F0B9FA4FF4FA7012
:1002300001F0A0F94FF480710C4800F0AEFA08E02C
:1002400009484078BB2804D14FF48071074800F07A
:10025000A4FA4FF47A7001F08DF9C8E7000000208D
:100260000014014010000020080000200008014098
:10027000704700BFFEE700BFFEE700BFFEE700BF1C
:10028000FEE7704770477047704700000CB50020CC
:10029000019000906B48006840F480306949086024
:1002A00000BF6848006800F4003000900198401CCE
:1002B0000190009818B90198B0F5A06FF1D161488C
:1002C000006810F4003F02D00120009001E00020FF
:1002D00000900098012842D15B48006840F010006F
:1002E000594908600846006820F003000860084685
:1002F000006840F002000860524840685149486078
:100300000846406848600846406840F4806048609D
:100310000846406820F47C1048600846406840F475
:10032000E81048600846006840F08070086000BF30
:100330004448006810F0007FFAD04248406820F03E
:100340000300404948600846406840F002004860A9
:1003500000BF3C48406800F00C000828F9D10CBDF3
:1003600010B5FFF793FF10BD10B53648006840F098
:100370000100344908600846406834490840314962
:10038000486008460068324908402E49086008461F
:10039000006820F4802008600846406820F4FE00D1
:1003A00048604FF41F008860FFF7DAFF4FF00060ED
:1003B0002849086010BD10B5002100200022214B03
:1003C0005B6803F00C0121B1042906D0082928D16B
:1003D00007E0214B214C236027E01F4B1F4C23607B
:1003E00023E0184B5B6803F47010164B5B6803F452
:1003F0008032022303EB904022B9194B4343174C40
:1004000023600DE00F4B5B6813F4003F04D0144BE6
:100410004343124C236003E00F4B43430F4C2360D4
:1004200003E00D4B0D4C236000BF00BF054B5B6824
:10043000C3F303130B4CE15C084B1B68CB40074C28
:10044000236010BD00100240002002400000FFF8B1
:10045000FFFFF6FE08ED00E000127A001400002015
:1004600000093D001800002009488047094800475E
:10047000FEE7FEE7FEE7FEE7FEE7FEE7FEE7FEE754
:10048000FEE7FEE704480549054A064B70470000B1
:100490006903000831010008A8000020A806002018
:1004A000A8020020A802002031490143314A11600E
:1004B000704770B5002100230F22C4780CB32D4C77
:1004C000246804F4E064C4F5E064210AC1F1040383
:1004D000CA40447804FA03F18478144021430901A6
:1004E000254C0678A155047804F01F050124AC4082
:1004F00005786D114FF0E02606EB8505C5F8004143
:1005000009E0047804F01F050124AC401B4D067877
:10051000761145F8264070BD194A0A400243154B32
:100520001B1F1A60704739B1124A121D126802432C
:10053000104B1B1D1A6006E00E4A121D1268824302
:100540000C4B1B1D1A607047042808D14FF0E021A6
:10055000096941F004014FF0E022116107E04FF01A
:10056000E021096921F004014FF0E0221161704798
:100570000000FA050CED00E000E400E080E100E09E
:1005800080FFFF1F10B50446CA48844208D10121EC
:10059000042000F027FB0021042000F023FB46E0AC
:1005A000C548844208D10121082000F01BFB00212E
:1005B000082000F017FB3AE0C048844208D101212E
:1005C000102000F00FFB0021102000F00BFB2EE0AC
:1005D000BB48844208D10121202000F003FB002108
:1005E000202000F0FFFA22E0B648844208D1012121
:1005F000402000F0F7FA0021402000F0F3FA16E066
:10060000B148844208D10121802000F0EBFA00219A
:10061000802000F0E7FA0AE0AC48844207D10121CB
:10062000801500F0DFFA0021A01500F0DBFA10BD04
:1006300010B50121084600F0D5FA0021012000F094
:10064000D1FA10BD2DE9F041024600250026002018
:1006500000230024002791F803C00CF00F0591F847
:1006600003C01CF0100F03D091F802C04CEA05053E
:1006700091F800C0BCF1000F31D0146800202BE0CD
:100680004FF0010C0CFA00F3B1F800C00CEA0306BD
:100690009E4220D183004FF00F0C0CFA03F7BC43AD
:1006A00005FA03FC4CEA040491F803C0BCF1280FDE
:1006B00006D14FF0010C0CFA00FCC2F814C00AE09D
:1006C00091F803C0BCF1480F05D14FF0010C0CFAB2
:1006D00000FCC2F810C0401C0828D1D31460B1F847
:1006E00000C0BCF1FF0F34DD546800202EE000F1A3
:1006F000080C4FF0010808FA0CF3B1F800C00CEA3E
:1007000003069E4221D183004FF00F0C0CFA03F731
:10071000BC4305FA03FC4CEA040491F803C0BCF1A5
:10072000280F05D100F1080C08FA0CF8C2F8148063
:1007300091F803C0BCF1480F07D100F1080C4FF04D
:10074000010808FA0CF8C2F81080401C0828CED323
:100750005460BDE8F0814FF6FF7101800221817085
:100760000421C17070470246002093680B4201D0FB
:10077000012000E0002070470146886880B2704781
:1007800002460020D3680B4201D0012000E0002087
:1007900070470146C86880B2704701617047416187
:1007A00070470AB1016100E041617047C160704764
:1007B0004FF480320A438261816182618269826979
:1007C000704702460020424B18684FF6807318406D
:1007D00040EA021008433E4B186070473D49C8612B
:1007E0007047F0B50A46002300240021002500F0E0
:1007F0000046B6F1004F02D1354EF16901E0344EAA
:100800007168C0F3034583B200F44016B6F5401F8B
:1008100008D121F070612E4E766826F070662C4F5C
:100820007E6012E000F48016B6F5801F06D1032624
:1008300006FA05F4A14341F0706106E0460D360169
:1008400003FA06F6B14341F0706122B1460D36015C
:1008500003FA06F6314300F00046B6F1004F02D12C
:100860001B4EF16101E01A4E7160F0BD30B50022FF
:100870008B071C0F0F2303FA04F2154B08338C105F
:1008800053F824309343124C08348D1044F825302B
:1008900023468C1053F824308C07240F00FA04F4FC
:1008A00023430B4C08348D1044F8253030BD0A49E1
:1008B0000860704700080140000C01400010014032
:1008C0000014014000180140001C014000200140BC
:1008D0000000014000002042DC002042DD480068AA
:1008E00040F00100DB49086008464068DA490840EA
:1008F000D849486008460068D8490840D54908608A
:100900000846006820F4802008600846406820F40B
:10091000FE0048604FF41F0088607047CD490968A9
:1009200021F48031CB4A11601146096821F48021FD
:100930001160B0F5803F03D0B0F5802F0ED106E0F6
:10094000C449096841F48031C24A116007E0C149D5
:10095000096841F4A021BF4A116000E000BF00BF58
:10096000704710B501460022002300204A11012AD9
:1009700002D1B84C236806E0022A02D1B54C236AA2
:1009800001E0B44C636A01F01F02012494401C4250
:1009900001D0012000E0002010BD38B500200090FB
:1009A0000024002500BF3120FFF7DBFF054600983B
:1009B000401C00900098B0F5A06F01D0002DF2D03F
:1009C0003120FFF7CEFF08B1012400E000242046CB
:1009D00038BD014600209F4A106820F0F80040EA28
:1009E000C100106070479E490860704702460020B1
:1009F000984B586820F47C1042EA01031843954B49
:100A00005860704796490866704701460020914A31
:100A1000506820F003000843506070478D484068DC
:100A200000F00C007047014600208A4A506820F010
:100A3000F00008435060704701460020854A506826
:100A400020F4E06008435060704701460020814A6E
:100A5000506820F4605040EAC1005060704729B1EE
:100A60007C4A527A02437B4B5A7204E0794A527AAA
:100A70008243784B5A7270477A4908607047014642
:100A80000020744A506820F440400843506070478A
:100A90000021754A11706F4A82F82010012802D097
:100AA000042808D103E001216F4A117004E00521F8
:100AB0006D4A117000E000BF00BF70476B490860CD
:100AC00070476449096A0143624A11627047674985
:100AD00044390860704730B500210022002400230B
:100AE0005C4D6D6805F00C0121B1042905D0082981
:100AF00023D105E05E4D056022E05D4D05601FE0FD
:100B0000544D6D6805F47012524D6D6805F48034D3
:100B1000022505EB92421CB9564D554305600BE08A
:100B20004C4D6D6815F4003F03D0524D55430560A0
:100B300002E04F4D5543056002E04D4D056000BF9A
:100B400000BF444D6D6805F0F00109094A4D6B5C2A
:100B50000568DD4045603F4D6D6805F4E061090AB8
:100B6000454D6B5C4568DD4085603A4D6D6805F428
:100B70006051C90A404D6B5C4568DD40C560354D2C
:100B80006D6805F44041890B3C4D6B5CC568B5FB55
:100B9000F3F5056130BD29B12E4A526902432D4B50
:100BA0005A6104E02B4A526982432A4B5A617047CA
:100BB00029B1284A92690243264B9A6104E0254AEA
:100BC00092698243234B9A61704729B1214AD269C5
:100BD0000243204BDA6104E01E4AD26982431D4B76
:100BE000DA61704729B11B4AD2680243194BDA60B7
:100BF00004E0184AD2688243164BDA60704729B184
:100C0000144A12690243134B1A6104E0114A126933
:100C10008243104B1A61704714494039086070478D
:100C20000F49C86470470B49C87170470948406A4A
:100C300040F0807007494862704701460020054A2D
:100C400092680A4201D0012000E00020704701496B
:100C500088727047001002400000FFF8FFFFF6FEA8
:100C600000004242D800424220100240800442422A
:100C700000127A0000093D00280000203800002002
:100C800010B50446BE48844208D101218014FFF704
:100C9000A9FF0021A014FFF7A5FF16E0B948844280
:100CA00008D101210014FFF7AAFF00212014FFF74B
:100CB000A6FF0AE0B448844207D10121C013FFF720
:100CC0009EFF0021E013FFF79AFF10BD10B5002230
:100CD000028802F441520B884C8823438C882343BA
:100CE000CC8823430C8923434C8923438C89234399
:100CF000CC8923431A430280838B4FF2FF74234035
:100D000083830B8A038210BD2DE9F04F85B0054621
:100D10000C464FF0000902274FF000084FF0010B7E
:100D20000026B246A88B4FF240010840A88302205B
:100D30002884B5F81C90A068022801D100BF38E0D3
:100D4000A08810B94FF0010B01E04FF0020B8D4865
:100D5000854200D100E000BF6846FFF7BCFEDDF829
:100D600000A0E088B0F5007F0AD14FEA1A2000EB1E
:100D700080004000A168B0FBF1F0401D86B20BE09E
:100D80004FEA4B10BAFBF0F000EB80004000A16886
:100D9000B0FBF1F0401D86B20A20B6FBF0F606F07B
:100DA0000108A6EB0800C0F34F074FF6FF7000EAFA
:100DB0000828022F01DBFF2F02DD02274FF0000879
:100DC000E08840EA080038432884A088A1890843C5
:100DD000618808432188084340F4006040EA09091B
:100DE000A5F81C9005B0BDE8F08F0021018041807E
:100DF0008180C180018141818181C181072101827E
:100E000070470021018041808180C1800221816082
:100E100000218181704721B1028842F040020280A6
:100E200004E002884FF6BF731A400280704721B178
:100E3000828B42F48062828304E0828B4FF6FF3320
:100E40001A408283704730B5002400230C1101251D
:100E5000A540ABB21AB185881D43858002E0858824
:100E60009D43858030BD1AB183880B43838002E0A7
:100E700083888B43838070478181704701468889CE
:100E80007047A1F57E42FF3A04D0028842F4807296
:100E9000028004E002884FF6FF631A400280704728
:100EA00021B1828842F00402828004E082884FF6F9
:100EB000FB731A408280704702884FF2FF731A401A
:100EC000028002880A4302807047018841F4805101
:100ED0000180704721B1028842F40052028004E090
:100EE00002884DF6FF731A400280704702460020C8
:100EF000012901D0108B00E0908A70470146088AD2
:100F00007047B1F5804F04D1028842F480420280DC
:100F100004E002884BF6FF731A40028070470246D5
:100F2000002013890B4201D0012000E0002070470F
:100F3000CA4302817047F0B5024600200024002316
:100F4000002501F00F070126BE40B4B20B110126A7
:100F50009E40B3B2968806EA03051689264202D05F
:100F60000DB1012000E00020F0BD10B5002201F01D
:100F70000F040123A3409AB2D343038110BD0000A4
:100F80000030014000380040003C004008B501211D
:100F90002420FFF70DFE4FF48070ADF80000102004
:100FA0008DF8030003208DF8020069460948FFF719
:100FB00049FB4FF480710748FFF7EFFB0420ADF8C1
:100FC000000069460448FFF73DFB04210248FFF793
:100FD000E4FB08BD000801400014014070B505465F
:100FE000002405E0601CC4B2C82C01DD002070BDE7
:100FF00002213A48FFF793FF0028F3D029463748EB
:10100000FFF73AFF002405E0601CC4B2C82C01DDE4
:101010000020ECE701213148FFF781FF0028F3D0E1
:101020002E48FFF72BFFC0B2E1E700B587B00121E2
:1010300041F20400FFF7BCFDE020ADF804001820E9
:101040008DF8070003208DF8060001A92448FFF75A
:10105000F9FAE0212248FFF7A0FB0C20ADF80400CC
:1010600048208DF8070001A91D48FFF7EBFA102072
:10107000ADF8040003208DF8060010208DF807005D
:1010800001A91748FFF7DEFA0020ADF808004FF479
:101090008270ADF80A000020ADF80C000220ADF817
:1010A0000E000120ADF810004002ADF8120028201B
:1010B000ADF814000020ADF816000720ADF81800B8
:1010C00002A90648FFF702FE01210448FFF7A3FE2C
:1010D000FF20FFF783FF07B000BD00000030014094
:1010E0000008014010B51021F948FFF758FB00BF78
:1010F0004021F748FFF737FB0028F9D13020FFF7F0
:101100006DFF00BF4021F248FFF72DFB0028F9D109
:101110001021EF48FFF741FB10BD10B51021EC483E
:10112000FFF73BFB0A2000F040FA1021E848FFF7E8
:1011300036FB0A2000F039FA1021E548FFF72DFBB5
:10114000322000F032FAFFF7CDFF10BD70B5044633
:101150000D461021DE48FFF722FB00BF4021DC488E
:10116000FFF701FB0028F9D104F07F042046FFF7C8
:1011700035FF2846FFF732FF1021D548FFF70DFB5A
:1011800070BD2DE9F04105460E4617461021D048A6
:10119000FFF705FB00BF4021CD48FFF7E4FA002828
:1011A000F9D145F040052846FFF718FF002404E078
:1011B000305DFFF713FF601CC4B2BC42F8DB1021A6
:1011C000C348FFF7EAFABDE8F08110B504461021E4
:1011D000BF48FFF7E4FA00BF4021BD48FFF7C3FA5C
:1011E0000028F9D12046FFF7F9FE1021B848FFF793
:1011F000D4FA10BD70B504461021B548FFF7CFFAF8
:1012000000BF4021B248FFF7AEFA0028F9D144F000
:1012100080042046FFF7E2FE0020FFF7DFFE0546D0
:101220001021AB48FFF7B9FA284670BD70B50446E7
:101230001021A748FFF7B3FA00BF4021A448FFF7E9
:1012400092FA0028F9D144F0C0042046FFF7C6FE08
:101250000020FFF7C3FE054610219D48FFF79DFAC9
:10126000284670BD2DE9F04105460E46174610216F
:101270009748FFF794FA00BF40219548FFF773FAAB
:101280000028F9D145F0C0052846FFF7A7FE002445
:1012900005E00020FFF7A2FE3055601CC4B2BC423E
:1012A000F7DB10218A48FFF778FABDE8F08110B526
:1012B000884841780C20FFF749FF864801780B20C9
:1012C000FFF744FF834881780D20FFF73FFF8148F7
:1012D000C1780E20FFF73AFF7E4801790F20FFF713
:1012E00035FF7C4841791020FFF730FF794881793C
:1012F0001120FFF72BFF7748C1791220FFF726FF57
:101300007448017A1320FFF721FF7248417A1420B4
:10131000FFF71CFF6F48817A0A20FFF717FF6D481F
:10132000C17A1520FFF712FF6A48017B2120FFF7E1
:101330000DFF6848417B2220FFF708FF6548817B4D
:101340001820FFF703FF6348C17B1920FFF7FEFE5B
:101350006048017C1A20FFF7F9FE5E48417C1B20A3
:10136000FFF7F4FE5B48817C1C20FFF7EFFE594835
:10137000C17C1D20FFF7EAFE5648017D2320FFF7C0
:10138000E5FE5448417D2420FFF7E0FE5148817D71
:101390002520FFF7DBFE4F48C17D2620FFF7D6FE54
:1013A0004C48017E2920FFF7D1FE4A48417E2C207F
:1013B000FFF7CCFE4748817E2D20FFF7C7FE45484A
:1013C000C17E2E20FFF7C2FE4248017F0020FFF7BA
:1013D000BDFE4048417F0220FFF7B8FE3D48817FB7
:1013E0000720FFF7B3FE3B48C17F0820FFF7AEFEA2
:1013F000384890F820100920FFF7A8FE354890F8EB
:1014000021100620FFF7A2FE10BD10B50521162001
:10141000FFF79CFE39212020FFF798FE0F211E20A8
:10142000FFF794FEA0211F20FFF790FE3C20FFF75E
:10143000CCFE10BD10B5FFF770FEFFF738FF082295
:1014400025493E20FFF79DFE10BD70B504460D46B0
:101450003620FFF7BAFE3B20FFF7B7FE29463F20B4
:10146000FFF774FE2A4621463F20FFF78AFE01203F
:1014700000F080F83520FFF7A8FE00BF08211448CF
:10148000FFF771F90028F9D000BF08211048FFF7D5
:101490006AF90028F9D170BDF8B506460D4632202C
:1014A0006843C7B23420FFF790FE012000F062F8D5
:1014B00014E0012000F05EF8781EC7B2012F0DDAAB
:1014C0003620FFF782FE3A20FFF77FFE0020F8BDAE
:1014D000000801405A1600083C0000200821174867
:1014E000FFF741F90028E4D13B20FFF79FFE10F001
:1014F0007F0F20D03F20FFF77DFE0446AC4212DC78
:10150000224631463F20FFF7ADFE254602226946BE
:101510003F20FFF7A7FE3A20FFF757FE9DF8010096
:1015200000F08000D3E73620FFF74FFE3A20FFF7A8
:101530004CFE0020CBE70020C9E700000008014076
:1015400010B504466FF00400FEF7FEFFE11704EB50
:101550005171C1F3C701224A11701046007800EBA7
:101560004001C1EBC0104FF6FF7101EAC0001D49F8
:10157000088010BD01461B4A12884A434FF0E02301
:101580005A6101221A6100229A6100BF4FF0E022E5
:10159000106910F0010F02D010F4803FF6D0002245
:1015A0004FF0E0231A619A61704701460C4A1278A5
:1015B0004A434FF0E0235A6101221A6100229A61E6
:1015C00000BF4FF0E022106910F0010F02D010F4BC
:1015D000803FF6D000224FF0E0231A619A617047F5
:1015E0004400002046000020704770477047754651
:1015F00000F028F8AE4605006946534620F0070083
:10160000854618B020B5FEF73DFFBDE820404FF0FD
:1016100000064FF000074FF000084FF0000B21F0DC
:101620000701AC46ACE8C009ACE8C009ACE8C009A9
:10163000ACE8C0098D4670470446AFF300802046F1
:10164000FEF7BDFD00487047480000200149182002
:10165000ABBEFEE7260002007047080010A7625BE1
:10166000F80322F80047B610181D1CC700B2EA2A7A
:101670000011598135090B060405000C9C16000861
:1016800000000020480000006C010008E41600087B
:1016900048000020600600008801000800000000EB
:1016A0000000000000000000000000000800000032
:1016B00000A24A0400000000000000000102030430
:1016C00006070809000000000102030401020304E8
:1016D00006070809020406086060606060606060D8
:0416E0000000000006
:0400000508000131BD
:00000001FF
