:020000040800F2
:1000000048070020F9110008151000081710000813
:100010001B1000081F10000823100008000000003B
:100020000000000000000000000000002710000891
:1000300029100008000000002B1000082D100008F7
:1000400013120008131200081312000813120008FC
:1000500013120008131200081312000813120008EC
:1000600013120008131200081312000813120008DC
:1000700013120008131200081312000813120008CC
:1000800013120008131200081312000813120008BC
:1000900013120008131200081312000813120008AC
:1000A000131200081312000813120008131200089C
:1000B0001B0F000813120008131200081312000887
:1000C000131200081312000813120008131200087C
:1000D000131200081312000813120008131200086C
:1000E000131200081312000813120008131200085C
:1000F000131200081312000813120008131200084C
:10010000131200081312000813120008131200083B
:10011000131200081312000813120008131200082B
:10012000131200081312000813120008131200081B
:1001300000F002F800F03AF80AA090E8000C8244BF
:100140008344AAF10107DA4501D100F02FF8AFF29C
:10015000090EBAE80F0013F0010F18BFFB1A43F0A5
:10016000010318475077000070770000103A24BF51
:1001700078C878C1FAD8520724BF30C830C144BF0C
:1001800004680C607047000000230024002500264E
:10019000103A28BF78C1FBD8520728BF30C148BFEA
:1001A0000B6070471FB51FBD10B510BD05F02BFBD0
:1001B0001146FFF7F7FF00F0B6F905F049FB03B46D
:1001C000FFF7F2FF03BC05F04DFB000010B500F097
:1001D00093FF482002F0D4FC02F0AAFC05F0F6FAE6
:1001E00003F097FE05F093F904F0CBFB05F0C2FA9B
:1001F00010BD7FB50546287800098DF808002878DD
:1002000000F00F008DF80900687800098DF80A00E9
:10021000687800F00F008DF80B00A87800098DF8C1
:100220000C00A87800F00F008DF80D00E8780009A8
:100230008DF80E00E87800F00F008DF80F00002414
:100240007EE0E11704EB5171C910A4EBC10102AAD1
:10025000515C092912DC10202646E11704EB51718C
:10026000C910A4EBC10102AB00905A5C322101EB32
:10027000C4000123502104F071FA5FE0E11704EBA0
:100280005171C910A4EBC10102AA515CA1F10A008D
:10029000062852D2DFE800F003101D2A3744FEA0E2
:1002A0001021CDE90010322101EBC4001023C82237
:1002B000502104F00BFB40E0F8A01021CDE9001024
:1002C000322101EBC4001023C822502104F0FEFAB1
:1002D00033E0F3A01021CDE90010322101EBC4007E
:1002E0001023C822502104F0F1FA26E0EDA01021DD
:1002F000CDE90010322101EBC4001023C8225021A7
:1003000004F0E4FA19E0E8A01021CDE90010322150
:1003100001EBC4001023C822502104F0D7FA0CE0EE
:10032000E2A01021CDE90010322101EBC40010231E
:10033000C822502104F0CAFA00BF00BF601CC4B23A
:10034000082CFFF67EAF7FBD1CB50446D848007868
:1003500000F00F00D6490978091101EB810100EB8B
:100360004100D4490870D248407800F00F00D049CD
:100370004978091101EB810100EB4100CD4948703A
:10038000CB48807800F00F00C9498978091101EB4A
:10039000810100EB4100C7498870C548C07800F072
:1003A0000F00C349C978091101EB810100EB41003D
:1003B000C049C870BE48007900F00F00BC490979F7
:1003C000091101EB810100EB4100BA490871B848FD
:1003D000407900F00F00B6494979091101EB81011C
:1003E00000EB4100B3494871B148807900F00F003B
:1003F000AF498979091101EB810100EB4100AD4959
:1004000088711F20AC490880AA488078AB490978D8
:10041000884258D0A7488078A84908701F23002236
:100420004FF48571842005F00CF91F2301224FF44D
:1004300085719C2005F005F99E488079401CC2B268
:100440001F234FF48571B42005F0FBF81820022318
:1004500014224FF491710090642004F07FF9182069
:1004600000909448027802234FF491717C2004F0AC
:1004700075F9002018232D224FF4917100909420DB
:1004800004F0DBF880201821CDE90010894842787B
:1004900002234FF49171A42004F0AAF9002018233C
:1004A0002D224FF491710090BC2004F0C6F88020FA
:1004B0001821CDE900107F48827802234FF4917112
:1004C000CC2004F095F9182000907A48C2780223D5
:1004D0002821442004F042F9002018233A22282140
:1004E00000905C2004F0A9F880201821CDE90010CC
:1004F00070480279022328216C2004F079F9002049
:1005000018233A2228210090842004F096F88020B5
:100510001821CDE900106748427902232821942050
:1005200004F066F91CBD0EB5FFF750FE04F0C9FDDE
:1005300004F039FE012002F03CFB04F0F9FD4120FB
:1005400004F003FE4FF47A7002F033FB1F230922FC
:100550000821242005F075F81F230A2208213C20D9
:1005600005F06FF81F230B220821542005F069F8CD
:100570001F230C2208216C2005F063F81F230D2295
:100580000821842005F05DF81F230E2208219C20FD
:1005900005F057F81F230F220821B42005F051F869
:1005A0001F23092250210A2005F002F81F230A22E6
:1005B00050211A2004F0FCFF1F203F49088040A072
:1005C00010210B46C822CDE9001050212A2004F04A
:1005D0007DF91F23162268210A2004F0E9FF1F235A
:1005E000172268211A2004F0E3FF35A010210B46E2
:1005F000C822CDE9001068212A2004F067F91F23E2
:10060000192280210A2004F0D3FF1F231122802108
:100610001A2004F0CDFF1F230B2280212A2004F092
:10062000C7FF1F230C2280213A2004F0C1FF24A021
:1006300010210B46C822CDE9001080214A2004F089
:1006400045F91F23182298210A2004F0B1FF1F2327
:10065000112298211A2004F0ABFF1F230B229821AE
:100660002A2004F0A5FF1F230C2298213A2004F031
:100670009FFF13A010210B46C822CDE9001098213E
:100680004A2004F023F91F230F22B0210A2004F08E
:100690008FFF1F23102215E04100000042000000E0
:1006A0004300000044000000450000004600000038
:1006B0005400002060000020940000200000002072
:1006C0003A000000B0211A2004F072FF1F230B2211
:1006D000B0212A2004F06CFF1F230C22B0213A2005
:1006E00004F066FFAFF2280010210B46C822CDE9C6
:1006F0000010B0214A2004F0E9F81F231C22C82171
:100700000A2004F055FF1F231D22C8211A2004F0DF
:100710004FFF1F231E22C8212A2004F049FF1F2358
:100720001722C8213A2004F043FFAFF26C001021D9
:100730000B46C822CDE9001011464A2004F0C6F845
:100740001F231A22E0210A2004F032FF1F231B225C
:10075000E0211A2004F02CFF1F231022E0212A2080
:1007600004F026FF1F230E22E0213A2004F020FF90
:10077000AFF2B40010210B46C822CDE90010E021F1
:100780004A2004F0A3F8802018210223CDE90010AC
:10079000FE480278DC215E2004F02AF8FC4804F0D0
:1007A0003DFEFB48FFF7D0FDB6E3FA48007800288D
:1007B0007ED1F949522004F021FAF8490870084620
:1007C000007828B1F449522004F018FAF34908706F
:1007D000F248007800286CD100214FF0804001F0F1
:1007E000C9FEED4804F034FAED48EB4909680160B0
:1007F00004F0A2FAEA4BEB4A0121602004F0D5FA9A
:10080000E6490870084600780028E4D1E249012052
:1008100004F002FBE048007838B90421E24800F017
:1008200086FE0020E149087007E04FF48071E0483F
:1008300000F07DFE0120DD4908700220D5490870D6
:100840000020DC490870D648FFF7D3FCD748007871
:1008500000287CD1D849022004F0DEFA0120D749D3
:100860000870D74800784870D54840788870D448D8
:100870008078C870D248C0780871D1480079487132
:10088000CF48407988715A20C871012004F0EEFAEF
:1008900010200223142280210090522003F05EFFDA
:1008A00010200090C648007802230246802101E013
:1008B000E4E2DEE20290622003F050FF0020102309
:1008C0002D2280210090722003F0B7FE802010219D
:1008D000CDE90010BA4840780223024680210290F8
:1008E0007A2003F085FF002010232D228021009024
:1008F0008A2003F0A2FE80201021CDE90010B0482C
:1009000080780223024680210290922003F070FF3B
:1009100010200090AA48C07802230246802102904D
:10092000AA2003F01BFF002010233A228021009010
:10093000BA2003F082FE80201021CDE90010A048EB
:1009400000790223024680210290C22000E04CE0A0
:1009500003F04EFF002010233A2280210090D22085
:1009600003F06BFE80201021CDE9001094484079FF
:100970000223024680210290DA2003F039FF802012
:100980001821CDE900108C4800780223024664212A
:1009900002903E2003F02CFF1F231A4668215620A8
:1009A00004F006FE79480078401E784908708020DF
:1009B00018210223CDE9001074480278DC215E2062
:1009C00003F016FF4FF478407E4908807EA0102186
:1009D0000B46C822CDE900104FF48571222003F0A8
:1009E00075FF1F20774908801EE2704800780128B3
:1009F000FAD17149022004F00FFA71484078664933
:100A0000897888422BD06E48407863498978401AAB
:100A1000C0EB0010400000EB4000C000C0EB001035
:100A20008000674989785C4AD278891A01EB4101D4
:100A3000C900C1EB011100EB81016148C078564A41
:100A40001279801AC0EB001001EB80005C49097933
:100A5000514A5279891A08445E49088032E0584860
:100A600080784D49C97888421CD0554880784A49D9
:100A7000C978401A00EB4000C000C0EB00108100B4
:100A80004F48C078444A1279801AC0EB001001EB3D
:100A900080014B480079404A5279801A08444D49F8
:100AA00008800FE0464800793B494979401A44499B
:100AB000C978394A1279891AC1EB011100EB81001A
:100AC000444908803C48007842490988884206DD4C
:100AD000394800783F490978401A37490870364943
:100AE000022004F0C3F9002034490870487088706F
:100AF000C870087148718871012004F0B7F904F0DA
:100B0000C7FA10200223142280210090522003F003
:100B100025FE1020009020484078022302468021C4
:100B20000290622003F01AFE002010232D22802163
:100B30000090722003F081FD80201021CDE900108B
:100B40001548807802230246802102907A2003F023
:100B50004FFE002010232D22802100908A2003F0D8
:100B60006CFD80201021CDE900100B48C0780223D5
:100B7000024680210290922003F03AFE102000905D
:100B80000548007902230246802125E00400002068
:100B900054000020020000209C0000205B00002088
:100BA0005C0000201400002000140140010000201F
:100BB0000008014003000020BA000020440000208B
:100BC000600000209400002057656C636F6D652104
:100BD00000000000060000200290AA2003F0BEFDE5
:100BE000002010233A2280210090BA2003F025FD36
:100BF00080201021CDE90010ED4840790223024603
:100C000080210290C22003F0F3FD002010233A223D
:100C100080210090D22003F010FD80201021CDE92A
:100C20000010E34880790223024680210290DA20F6
:100C300003F0DEFD102002231422982100905220A0
:100C400003F08CFD10200090DA4800780223024661
:100C500098210290622003F081FD002010232D22B4
:100C600098210090722003F0E8FC80201021CDE94B
:100C70000010D048407802230246982102907A2042
:100C800003F0B6FD002010232D22982100908A2029
:100C900003F0D3FC80201021CDE90010C5488078F6
:100CA0000223024698210290922003F0A1FD102019
:100CB0000090C048C0780223024698210290AA20E2
:100CC00003F04CFD002010233A2298210090BA2016
:100CD00003F0B3FC80201021CDE90010B548007965
:100CE0000223024698210290C22003F081FD0020D9
:100CF00010233A2298210090D22003F09EFC8020FD
:100D00001021CDE90010AB4840790223024698211A
:100D10000290DA2003F06CFDA74800880A2815DA53
:100D2000802018210123CDE90010A3480288AC21BE
:100D30005E2003F05DFDA1A018211023C822CDE99B
:100D40000010AC216A2003F0C1FD33E09A4800880E
:100D5000642815DA802018210223CDE90010964876
:100D60000288AC215E2003F043FD94A018211023DB
:100D7000C822CDE90010AC21762003F0A7FD19E0D0
:100D80008D480088B0F57A7F14DA8020182103237B
:100D9000CDE9001088480288AC215E2003F028FDD0
:100DA00086A018211023C822CDE90010AC21822092
:100DB00003F08CFD82480078401C81490870084689
:100DC0000078632801DD6320087080201821022349
:100DD000CDE900107A480278DC215E2003F008FD9E
:100DE00080201821CDE900107648007802230246C1
:100DF000642102903E2003F0FBFC1F231A46682169
:100E0000562004F0D5FB802018210223CDE90010E4
:100E100069480288C4215E2003F0EAFC1F231A46B9
:100E2000C821762004F0C4FB4FF47A70664908802C
:100E300012E02021654800F07AFBC82001F0D4FEC2
:100E40002021624800F071FBC82001F0CDFE5E4811
:100E50000088401E5C4908805B4800880028E8DC68
:100E600004215B4800F061FB4FF48071594800F0A9
:100E70005CFB0121880701F07DFB4DE056480078BE
:100E8000012849D100205449087054A010210B4674
:100E9000C822CDE900105021322003F017FD4FA0E9
:100EA00018211023C822CDE900106821322003F058
:100EB0000DFD4DA010210B46C822CDE90010802168
:100EC000502003F003FD48A010210B46C822CDE9B5
:100ED00000109821502003F0F9FC49A0182110239C
:100EE000B022CDE900101146502003F0EFFC44A0E1
:100EF00018211023C822CDE900101146502003F01C
:100F0000E5FC36A010210B46C822CDE900104FF4B5
:100F10008571222003F0DAFC47E410B5012188072F
:100F200001F0F1FD002841D00121880701F0FCFD0E
:100F300035480068401C3449086008460068B0F530
:100F40007A7F01D9002008602F4800680521B0FB96
:100F5000F1F201FB120018B92C4804F05FFA25E009
:100F6000294800680521B0FBF1F201FB12000128BD
:100F700003D12648FFF7E8F918E023480068052167
:100F8000B0FBF1F201FB120002280FD112480078E9
:100F900002280BD11E480078401C1D4908700846E5
:100FA0000078102802DD01200B49087010BD0000F8
:100FB0009C00002060000020060000206D696E008B
:100FC00004000020BA0000200C00002000100140A6
:100FD00000140140000801400200002020202020D1
:100FE0002020202000000000202020202020202081
:100FF0002020202020202020202020200000000071
:101000002020202020200000080000205400002084
:1010100003000020704700BFFEE700BFFEE700BFEF
:10102000FEE700BFFEE7704770477047704700005B
:1010300000210020674A126842F48032654B1A6032
:1010400000BF644A126802F40030491C10B9B1F5BF
:10105000A06FF6D15F4A126812F4003F01D0012060
:1010600000E00020012842D15B4A126842F01002E1
:10107000594B1A601A46126822F003021A601A4687
:10108000126842F002021A60524A5268514B5A608A
:101090001A4652685A601A46526842F480625A6090
:1010A0001A46526822F47C125A601A46526842F478
:1010B000E8125A601A46126842F080721A6000BF45
:1010C000444A126812F0007FFAD0424A526822F075
:1010D0000302404B5A601A46526842F002025A60BC
:1010E00000BF3C4A526802F00C02082AF9D170474E
:1010F00010B5FFF79DFF10BD10B53648006840F0F1
:1011000001003449086008464068344908403149C4
:10111000486008460068324908402E490860084681
:10112000006820F4802008600846406820F4FE0033
:1011300048604FF41F008860FFF7DAFF4FF000604F
:101140002849086010BD10B5002100200022214B65
:101150005B6803F00C0121B1042906D0082928D1CD
:1011600007E0214B214C236027E01F4B1F4C2360DD
:1011700023E0184B5B6803F47010164B5B6803F4B4
:101180008032022303EB904022B9194B4343174CA2
:1011900023600DE00F4B5B6813F4003F04D0144B49
:1011A0004343124C236003E00F4B43430F4C236037
:1011B00003E00D4B0D4C236000BF00BF054B5B6887
:1011C000C3F303130B4CE15C084B1B68CB40074C8B
:1011D000236010BD00100240002002400000FFF814
:1011E000FFFFF6FE08ED00E000127A006800002024
:1011F00000093D006C00002009488047094800476D
:10120000FEE7FEE7FEE7FEE7FEE7FEE7FEE7FEE7B6
:10121000FEE7FEE704480549054A064B7047000013
:10122000F91000083101000848010020480700209B
:10123000480300204803002031490143314A11602E
:10124000704770B5002100230F22C4780CB32D4CD9
:10125000246804F4E064C4F5E064210AC1F10403E5
:10126000CA40447804FA03F1847814402143090108
:10127000254C0678A155047804F01F050124AC40E4
:1012800005786D114FF0E02606EB8505C5F80041A5
:1012900009E0047804F01F050124AC401B4D0678DA
:1012A000761145F8264070BD194A0A400243154B95
:1012B0001B1F1A60704739B1124A121D126802438F
:1012C000104B1B1D1A6006E00E4A121D1268824365
:1012D0000C4B1B1D1A607047042808D14FF0E02109
:1012E000096941F004014FF0E022116107E04FF07D
:1012F000E021096921F004014FF0E02211617047FB
:101300000000FA050CED00E000E400E080E100E000
:1013100080FFFF1F10B50446CA48844208D101214E
:10132000042000F023FB0021042000F01FFB46E016
:10133000C548844208D10121082000F017FB002194
:10134000082000F013FB3AE0C048844208D1012194
:10135000102000F00BFB0021102000F007FB2EE016
:10136000BB48844208D10121202000F0FFFA00216F
:10137000202000F0FBFA22E0B648844208D1012187
:10138000402000F0F3FA0021402000F0EFFA16E0D0
:10139000B148844208D10121802000F0E7FA002101
:1013A000802000F0E3FA0AE0AC48844207D1012132
:1013B000801500F0DBFA0021A01500F0D7FA10BD6F
:1013C00010B50121084600F0D1FA0021012000F0FB
:1013D000CDFA10BD2DE9F04102460025002600207F
:1013E00000230024002791F803C00CF00F0591F8AA
:1013F00003C01CF0100F03D091F802C04CEA0505A1
:1014000091F800C0BCF1000F31D0146800202BE02F
:101410004FF0010C0CFA00F3B1F800C00CEA03061F
:101420009E4220D183004FF00F0C0CFA03F7BC430F
:1014300005FA03FC4CEA040491F803C0BCF1280F40
:1014400006D14FF0010C0CFA00FCC2F814C00AE0FF
:1014500091F803C0BCF1480F05D14FF0010C0CFA14
:1014600000FCC2F810C0401C0828D1D31460B1F8A9
:1014700000C0BCF1FF0F34DD546800202EE000F105
:10148000080C4FF0010808FA0CF3B1F800C00CEAA0
:1014900003069E4221D183004FF00F0C0CFA03F794
:1014A000BC4305FA03FC4CEA040491F803C0BCF108
:1014B000280F05D100F1080C08FA0CF8C2F81480C6
:1014C00091F803C0BCF1480F07D100F1080C4FF0B0
:1014D000010808FA0CF8C2F81080401C0828CED386
:1014E0005460BDE8F0814FF6FF71018002218170E8
:1014F0000421C17070470246002093680B4201D05E
:10150000012000E0002070470146886880B27047E3
:1015100002460020D3680B4201D0012000E00020E9
:1015200070470146C86880B27047016170474161E9
:1015300070470AB1016100E041617047C1607047C6
:101540004FF480320A4382618161826182698269DB
:10155000704702460020424B18684FF680731840CF
:1015600040EA021008433E4B186070473D49C8618D
:101570007047F0B50A46002300240021002500F042
:101580000046B6F1004F02D1354EF16901E0344E0C
:101590007168C0F3034583B200F44016B6F5401FEE
:1015A00008D121F070612E4E766826F070662C4FBF
:1015B0007E6012E000F48016B6F5801F06D1032687
:1015C00006FA05F4A14341F0706106E0460D3601CC
:1015D00003FA06F6B14341F0706122B1460D3601BF
:1015E00003FA06F6314300F00046B6F1004F02D18F
:1015F0001B4EF16101E01A4E7160F0BD30B5002262
:101600008B071C0F0F2303FA04F2154B08338C10C1
:1016100053F824309343124C08348D1044F825308D
:1016200023468C1053F824308C07240F00FA04F45E
:1016300023430B4C08348D1044F8253030BD0A4943
:101640000860704700080140000C01400010014094
:101650000014014000180140001C0140002001401E
:101660000000014000002042DC002042DB4800680E
:1016700040F00100D949086008464068D849084050
:10168000D649486008460068D6490840D3490860F2
:101690000846006820F4802008600846406820F46E
:1016A000FE0048604FF41F0088607047CB4909680E
:1016B00021F48031C94A11601146096821F4802162
:1016C0001160B0F5803F03D0B0F5802F0ED106E059
:1016D000C249096841F48031C04A116007E0BF493E
:1016E000096841F4A021BD4A116000E000BF00BFBD
:1016F000704710B501460022002300204A11012A3C
:1017000002D1B64C236806E0022A02D1B34C236A08
:1017100001E0B24C636A01F01F02012494401C42B4
:1017200001D0012000E0002010BD70B5002400258C
:10173000002600BF3120FFF7DCFF0646641CB4F52D
:10174000A06F01D0002EF5D03120FFF7D2FF08B1F5
:10175000012500E00025284670BD014600209F4A73
:10176000106820F0F80040EAC100106070479E4900
:101770000860704702460020984B586820F47C109F
:1017800042EA01031843954B586070479649086632
:10179000704701460020914A506820F0030008433A
:1017A000506070478D48406800F00C00704701465B
:1017B00000208A4A506820F0F000084350607047CB
:1017C00001460020854A506820F4E06008435060DC
:1017D000704701460020814A506820F4605040EA7A
:1017E000C1005060704729B17C4A527A02437B4B5A
:1017F0005A7204E0794A527A8243784B5A7270479F
:101800007A490860704701460020744A506820F405
:1018100040400843506070470021754A11706F4A7C
:1018200082F82010012802D0042808D103E0012109
:101830006F4A117004E005216D4A117000E000BF8D
:1018400000BF70476B49086070476449096A0143EB
:10185000624A11627047674944390860704730B581
:1018600000210022002400235C4D6D6805F00C016E
:1018700021B1042905D0082923D105E05E4D05607A
:1018800022E05D4D05601FE0544D6D6805F4701257
:10189000524D6D6805F48034022505EB92421CB967
:1018A000564D554305600BE04C4D6D6815F4003FF7
:1018B00003D0524D5543056002E04F4D554305603E
:1018C00002E04D4D056000BF00BF444D6D6805F05E
:1018D000F00109094A4D6B5C0568DD4045603F4DEC
:1018E0006D6805F4E061090A454D6B5C4568DD40B3
:1018F00085603A4D6D6805F46051C90A404D6B5CD6
:101900004568DD40C560354D6D6805F44041890B83
:101910003C4D6B5CC568B5FBF3F5056130BD29B185
:101920002E4A526902432D4B5A6104E02B4A5269F8
:1019300082432A4B5A61704729B1284A926902436F
:10194000264B9A6104E0254A92698243234B9A61AF
:10195000704729B1214AD2690243204BDA6104E081
:101960001E4AD26982431D4BDA61704729B11B4A76
:10197000D2680243194BDA6004E0184AD268824305
:10198000164BDA60704729B1144A12690243134BAF
:101990001A6104E0114A12698243104B1A617047C0
:1019A00014494039086070470F49C86470470B49B3
:1019B000C87170470948406A40F080700749486222
:1019C000704701460020054A92680A4201D0012072
:1019D00000E0002070470149887270470010024003
:1019E0000000FFF8FFFFF6FE00004242D80042422E
:1019F000201002408004424200127A0000093D009B
:101A00007C0000208C00002010B50446BE488442B3
:101A100008D101218014FFF7A9FF0021A014FFF7CE
:101A2000A5FF16E0B948844208D101210014FFF750
:101A3000AAFF00212014FFF7A6FF0AE0B448844261
:101A400007D10121C013FFF79EFF0021E013FFF72C
:101A50009AFF10BD10B50022028802F441520B8893
:101A60004C8823438C882343CC8823430C8923430D
:101A70004C8923438C892343CC8923431A43028016
:101A8000838B4FF2FF74234083830B8A038210BD44
:101A90002DE9F04F85B005460C464FF000090227AE
:101AA0004FF000084FF0010B0026B246A88B4FF212
:101AB00040010840A88302202884B5F81C90A06843
:101AC000022801D100BF38E0A08810B94FF0010B07
:101AD00001E04FF0020B8D48854200D100E000BFCD
:101AE0006846FFF7BCFEDDF800A0E088B0F5007F97
:101AF0000AD14FEA1A2000EB80004000A168B0FB39
:101B0000F1F0401D86B20BE04FEA4B10BAFBF0F04B
:101B100000EB80004000A168B0FBF1F0401D86B2F0
:101B20000A20B6FBF0F606F00108A6EB0800C0F3A9
:101B30004F074FF6FF7000EA0828022F01DBFF2F46
:101B400002DD02274FF00008E08840EA0800384331
:101B50002884A088A1890843618808432188084314
:101B600040F4006040EA0909A5F81C9005B0BDE802
:101B7000F08F0021018041808180C18001814181FD
:101B80008181C1810721018270470021018041804C
:101B90008180C1800221816000218181704721B153
:101BA000028842F04002028004E002884FF6BF73D0
:101BB0001A400280704721B1828B42F48062828396
:101BC00004E0828B4FF6FF331A408283704730B5B2
:101BD000002400230C110125A540ABB21AB1858861
:101BE0001D43858002E085889D43858030BD1AB104
:101BF00083880B43838002E083888B438380704714
:101C000081817047014688897047A1F57E42FF3A7D
:101C100004D0028842F48072028004E002884FF609
:101C2000FF631A400280704721B1828842F00402AB
:101C3000828004E082884FF6FB731A4082807047EE
:101C400002884FF2FF731A40028002880A43028022
:101C50007047018841F480510180704721B10288AA
:101C600042F40052028004E002884DF6FF731A40ED
:101C70000280704702460020012901D0108B00E04D
:101C8000908A70470146088A7047B1F5804F04D1A9
:101C9000028842F48042028004E002884BF6FF731F
:101CA0001A40028070470246002013890B4201D07F
:101CB000012000E000207047CA4302817047F0B560
:101CC0000246002000240023002501F00F07012612
:101CD000BE40B4B20B1101269E40B3B2968806EA0C
:101CE00003051689264202D00DB1012000E0002034
:101CF000F0BD10B5002201F00F040123A3409AB2F9
:101D0000D343038110BD0000003001400038004083
:101D1000003C004010B50446FE48844208D1012131
:101D2000C014FFF723FE0021E014FFF71FFEC4E0FC
:101D3000B4F1804F08D101210846FFF724FE0021AD
:101D40000120FFF720FEB8E0F348844208D10121CA
:101D50000220FFF718FE00210220FFF714FEACE07E
:101D6000EE48844208D101210420FFF70CFE002137
:101D70000420FFF708FEA0E0E948844208D10121D1
:101D80000820FFF700FE00210820FFF7FCFD94E08B
:101D9000E448844208D101211020FFF7F4FD00211E
:101DA0001020FFF7F0FD88E0DF48844208D10121D0
:101DB0002020FFF7E8FD00212020FFF7E4FD7CE074
:101DC000DA48844208D101214014FFF7CFFD0021F9
:101DD0006014FFF7CBFD70E0D548844209D10121A2
:101DE000C804FFF7C3FD00214FF40020FFF7BEFD3C
:101DF00063E0D048844209D101210805FFF7B6FD10
:101E000000214FF48010FFF7B1FD56E0CA4884422C
:101E100009D101214805FFF7A9FD00214FF4001069
:101E2000FFF7A4FD49E0C548844208D101214020C4
:101E3000FFF7A9FD00214020FFF7A5FD3DE0C048C8
:101E4000844208D101218020FFF79DFD00218020E0
:101E5000FFF799FD31E0BB48844208D1012180158C
:101E6000FFF791FD0021A015FFF78DFD25E0B64895
:101E7000844209D101210804FFF778FD00214FF4C5
:101E80008030FFF773FD18E0B048844209D101218A
:101E90004804FFF76BFD00214FF40030FFF766FDAB
:101EA0000BE0AB48844208D101218804FFF75EFDB6
:101EB00000214FF48020FFF759FD10BD0022028859
:101EC000944B98420ED0994B98420BD0B0F1804F72
:101ED00008D0914B984205D0904B984202D0904B3D
:101EE000984204D14FF68F731A404B881A438D4B9A
:101EF000984207D08C4B984204D04FF6FF431A40CB
:101F0000CB881A4302808B8883850B880385814B9D
:101F100098420BD0854B984208D08B4B984205D005
:101F20008A4B984202D08A4B984201D10B7A0386A1
:101F300001238382704770B5002400220023058CA2
:101F40004FF6FE7635400584028C8388048B4FF66D
:101F50008F752C40B51E2C400D882C43751E2A40D1
:101F60000D892A434D882A436A4DA8420BD06F4DF4
:101F7000A84208D0744DA84205D0744DA84202D0A2
:101F8000734DA84213D14FF6F7752A404D892A4365
:101F90004FF6FB752A408D882A434FF6FF652B408C
:101FA0004FF6FF552B408D892B43CD892B438380E2
:101FB0000483CD888586028470BD70B5002400221C
:101FC0000023058C4FF6EF7635400584028C83881C
:101FD000048B48F6FF752C404FF6FF452C400D88CA
:101FE0004FF6FF7606EA05252C434FF6DF752A40AB
:101FF0000D8906EA05152A434D8806EA05152A4388
:10200000444DA84202D0494DA8421DD14FF67F75DC
:102010002A404D894FF6FF7606EA05152A434FF60A
:10202000BF752A408D8806EA05152A434FF6FF350D
:102030002B404FF2FF752B408D8906EA85052B4317
:10204000CD8906EA85052B4383800483CD880587E7
:10205000028470BD70B5002400220023058C4FF669
:10206000FF6635400584028C8388848B4FF68F751C
:102070002C404FF6FC752C400D882C434FF6FF5535
:102080002A400D894FF6FF7606EA05252A434D883A
:1020900006EA05252A431F4DA84202D0234DA84237
:1020A0001DD14FF2FF752A404D894FF6FF7606EAA3
:1020B00005252A434FF6FF352A408D8806EA052577
:1020C0002A434EF6FF752B404DF6FF752B408D8948
:1020D00006EA05152B43CD8906EA05152B438380B7
:1020E0008483CD888587028470BD70B5002200236B
:1020F0000024058C4EF6FF7635400584038C8488D9
:10210000828B48F6FF752A404FF6FF452A400D881E
:1021100020E00000002C01400004004000080040C6
:10212000000C00400010004000140040003401404A
:10213000004C014000500140005401400018004094
:10214000001C0040002000400040014000440140CD
:10215000004801404FF6FF7606EA05252A434DF672
:10216000FF752B400D8906EA05352B434D8806EA9D
:1021700005352B43FA4DA84202D0FA4DA84208D1AA
:102180004BF6FF752C408D894FF6FF7606EA8515D4
:102190002C4384808283CD88A0F84050038470BD96
:1021A000828B4FF2FF331A408283828B4FF6FF738C
:1021B00003EA01231A4382837047F0B50C461546A3
:1021C000002200210026078C4EF6FF7C07EA0C0750
:1021D0000784828B018C4FF6FF7707EA043640F6BE
:1021E000FF473A404FF6FF7707EA05273A434FF695
:1021F000FF7707EA03373A43D94FB8420ED0D94F99
:10220000B8420BD0B0F1804F08D0D74FB84205D0BC
:10221000D64FB84202D0D64FB84206D14DF6FF771E
:10222000394046F48057394305E047F6FF573940B7
:1022300044F48057394382830184F0BD828B4FF68A
:10224000F3731A408283828B0A4382837047F0B50E
:102250000C461546002200210026078C4FF6FF6C25
:1022600007EA0C070784828B018C4FF6FF7707EA99
:1022700004264FF60C773A404FF6FF7707EA03172C
:102280002F433A43B64FB8420ED0B64FB8420BD0A8
:10229000B0F1804F08D0B44FB84205D0B34FB84228
:1022A00002D0B34FB84206D14FF6FF57394046F43B
:1022B0008077394305E04FF2FF57394044F4807787
:1022C000394382830184F0BD028B4FF2FF331A4001
:1022D0000283028B4FF6FF7303EA01231A43028342
:1022E0007047F0B50C461546002200210026078CE9
:1022F0004FF6EF7C07EA0C070784028B018C4FF640
:10230000FF7707EA041640F6FF473A404FF6FF779B
:1023100007EA03373A434FF6FF7707EA05273A43C0
:102320008F4FB8420ED08F4FB8420BD0B0F1804FD4
:1023300008D08D4FB84205D08C4FB84202D08C4F98
:10234000B84206D14FF6DF77394046F010073943DF
:1023500005E04FF65F77394044F0100739430283B8
:102360000184F0BD028B4FF6F3731A400283028B97
:102370000A4302837047F0B50C461546002200213F
:10238000068C4FF6FE773E400684028B018C4FF69A
:102390000C7632407E1C06EA03162E433243704E02
:1023A000B0420ED06F4EB0420BD0B0F1804F08D08B
:1023B0006D4EB04205D06D4EB04202D06C4EB04270
:1023C00006D14FF6FD76314044F00106314305E079
:1023D0004FF6F576314044F0010631430283018423
:1023E000F0BD70B505460C465D4885420ED05D488F
:1023F00085420BD0B5F1804F08D05B48854205D0AF
:102400005A48854202D05A48854200D100E000BFB8
:10241000208850B92389A28861882846FFF7ABFF3E
:10242000E1882846FFF79EFF25E0208804280AD18E
:102430002389A28861882846FFF753FFE188284650
:10244000FFF742FF17E0208808280AD12389A288D5
:1024500061882846FFF7FBFEE1882846FFF7EEFE7D
:1024600009E02389A28861882846FFF7A6FEE18853
:102470002846FFF795FE70BD2DE9F04105460C4654
:1024800000260127608808B9022600E00026A088FF
:10249000012801D1022700E001272088A0B9238963
:1024A000A28861882846FFF766FFE1882846FFF783
:1024B00059FF23893A4631462846FFF712FFE18843
:1024C0002846FFF701FF13E02389A2886188284688
:1024D000FFF707FFE1882846FFF7F6FE23893A4613
:1024E00031462846FFF747FFE1882846FFF73AFFC5
:1024F000BDE8F0810A884B881A438B881A43CB8841
:102500001A430B891A434B891A438B891A43A0F843
:10251000442070474FF6FF71818000210180C18007
:102520004180017270470021018041808180C1801B
:10253000018141818181C1817047002101804180F9
:10254000012181800021C18001817047002101802B
:1025500041808180C180018141818181704700007B
:10256000002C0140003401400004004000080040FD
:10257000000C004021B1028842F00102028004E018
:1025800002884FF6FE731A400280704731B1B0F8EE
:10259000442042F40042A0F8442005E0B0F8442072
:1025A000C2F30E02A0F8442070471AB183890B438E
:1025B000838102E083898B438381704781827047E6
:1025C00041EA0203A0F8483070471AB183890B43EF
:1025D000838102E083898B438381704701894FF6B1
:1025E000F8721140018170470A46002101894FF6B7
:1025F0008F73194011430181704730B504460D4671
:1026000029462046FFF7F0FF208940F0070020818F
:1026100030BD2DE9F04104460D4616461F46602D9B
:1026200006D13B46012231462046FFF75AFE05E01F
:102630003B46012231462046FFF79DFE29462046B3
:10264000FFF7D2FF208940F007002081BDE8F0812C
:1026500030B50C4600210189C9B24FF6FF7505EA75
:102660000325154325432943018130BD2DE9F04160
:1026700005460E4617469846002443463A463146DC
:102680002846FFF7E5FF2C894FF6F870044044F028
:1026900007044FF68F70044044F070042C81BDE8AD
:1026A000F081F0B504460D4616461F463B463246BD
:1026B00029462046FFF7CCFF208940F48040208146
:1026C000F0BD0185828270470A46002101884FF6DD
:1026D0008F731940114301807047F0B50C461546C1
:1026E0001E460021002200230189028B038C4FF635
:1026F000F877394021434FF6FC473A4040F2011742
:102700003A434FF6DD773B404FF6FF7707EA06176F
:102710002F433B43018102830384F0BD0A4600211D
:10272000018B4FF68F7319401143018370470A469E
:102730000021018B48F6FF7319404FF6FF7303EA3F
:1027400002231943018370470A460021818B4FF60B
:102750008F7319401143818370470A460021818B92
:1027600048F6FF7319404FF6FF7303EA022319433B
:102770008183704721B1028842F08002028004E028
:1027800002884FF67F731A400280704721B1828819
:1027900042F00402828004E082884FF6FB731A4004
:1027A0008280704721B1828842F00802828004E072
:1027B00082884FF6F7731A408280704721B1828871
:1027C00042F00102828004E082884FF6FE731A40D4
:1027D000828070470A460021018B4FF6F77319403B
:1027E0001143018370470A460021018B4FF2FF73AA
:1027F00019404FF6FF7303EA022319430183704720
:102800000A460021818B4FF6F773194011438183EB
:1028100070470A460021818B4FF2FF7319404FF633
:10282000FF7303EA02231943818370470A4600219C
:10283000018B4FF6FB7319401143018370470A4621
:102840000021018B4FF6FF3319404FF6FF7303EA67
:1028500002231943018370470A460021818B4FF6FA
:10286000FB7319401143818370470A460021818B15
:102870004FF6FF3319404FF6FF7303EA0223194363
:10288000818370470A460021018B4FF67F73194000
:102890001143018370470A460021018BC1F30E01E9
:1028A0004FF6FF7303EA02231943018370470A4678
:1028B0000021818B4FF67F7319401143818370474C
:1028C0000A460021818BC1F30E014FF6FF7303EA24
:1028D00002231943818370470A460021018C4FF679
:1028E000FD7319401143018470470A460021018C91
:1028F0004FF6F77319401143018470470A460021CF
:10290000018C4FF6DF7319404FF6FF7303EA021391
:102910001943018470470A460021018C4FF67F73EA
:1029200019404FF6FF7303EA0213194301847047FD
:102930000A460021018C4FF6FF5319404FF6FF73F2
:1029400003EA02231943018470470A460021018CDF
:102950004FF2FF7319404FF6FF7303EA0223194346
:10296000018470470A460021018C4DF6FF7319401F
:102970004FF6FF7303EA023319430184704730B501
:10298000002301248C40A3B2048C9C430484048C57
:1029900002FA01F5ADB22C43048430BD30B50023FA
:1029A00004248C40A3B2048C9C430484048C02FA5B
:1029B00001F5ADB22C43048430BD70B50346002050
:1029C00000241846183001258D40ACB21D8CA5435B
:1029D0001D8409B1082909D100EB6100056825F0C3
:1029E000700505600568154305600EE00D1FC5F311
:1029F0004E052844056825F4E045056005684FF656
:102A0000FF7606EA02263543056070BD21B10288D3
:102A100042F00202028004E002884FF6FD731A4081
:102A20000280704721B1028842F00402028004E073
:102A300002884FF6FB731A400280704721B18288EA
:102A400042F08002828004E082884FF67F731A4051
:102A50008280704702884FF6F7731A40028002881E
:102A60000A430280704782884FF68F731A40828033
:102A700082880A438280704702894FF6F8731A40B1
:102A8000028102890A430281704702894FF67F73EF
:102A90001A40028102890A4302817047818470478B
:102AA00081857047818670470187704781877047AD
:102AB000A0F84010704702884FF6FF431A4002808A
:102AC00002880A43028070470146888E704701469B
:102AD000088F70470146888F70470146B1F8400063
:102AE00070470146888C70470146088D7047024642
:102AF0000020138A0B4201D0012000E00020704723
:102B0000CA430282704730B50246002000230024E9
:102B1000158A05EA0103958905EA010413B10CB190
:102B2000012000E0002030BDCA430282704700004F
:102B300008B501213420FEF7FFFE4FF48070ADF898
:102B4000000010208DF8030003208DF80200694674
:102B50000948FEF73FFC4FF480710748FEF7E5FC9B
:102B60000420ADF8000069460448FEF733FC042158
:102B70000248FEF7DAFC08BD0008014000140140DD
:102B800010B504466FF00400FEF7A6FBE11704EB56
:102B90005171C910224A11701046007800EB4001B3
:102BA000C1EBC0104FF6FF7101EAC0001D4908805B
:102BB00010BD01461B4A12884A434FF0E0235A6178
:102BC00001221A6100229A6100BF4FF0E0221069D1
:102BD00010F0010F02D010F4803FF6D000224FF029
:102BE000E0231A619A61704701460D4A12784A4300
:102BF0004FF0E0235A6101221A6100229A6100BF5E
:102C00004FF0E022106910F0010F02D010F4803F65
:102C1000F6D000224FF0E0231A619A61704700005D
:102C2000900000209200002010B504464FF48071FF
:102C3000FE48FEF77CFC4FF40071FC48FEF777FC81
:102C40002146FB48FEF77AFC8021F848FEF76FFC2E
:102C50008021F648FEF769FC4FF40071F348FEF757
:102C600064FC10BD10B504464FF48071EF48FEF7C8
:102C70005CFC4FF40071ED48FEF759FC2146EC482E
:102C8000FEF75CFC8021E948FEF751FC8021E74813
:102C9000FEF74BFC4FF40071E448FEF746FC10BD14
:102CA00010B54FF08830E2490860091D0860002027
:102CB000DF490C3108608915DC48FEF736FC4FF41B
:102CC0000071DA48FEF733FC4021D848FEF72FFCAC
:102CD000D8488088A0F50941893902D10220FFF740
:102CE00083FFD348FEF710FC04464021CF48FEF78F
:102CF0001CFC4FF40071CD48FEF717FC4FF0333049
:102D0000CB490860091D08604FF6FF70C8490C31B7
:102D10000860204610BD70B504460D462046FFF7FA
:102D200083FF4FF48071C148FEF7FFFB4FF4007141
:102D3000BE48FEF7FCFB2946BD48FEF7FFFB80219D
:102D4000BA48FEF7F4FB8021B848FEF7EEFB4FF4DB
:102D50000071B648FEF7E9FB70BD10B50446204689
:102D6000FFF762FFFFF79CFF10BD10B5B14908895E
:102D7000FFF75AFF10BD10B504464FF48071AB4801
:102D8000FEF7D3FB4FF40071A848FEF7D0FB2146B5
:102D9000A748FEF7D3FB8021A448FEF7C8FB80219B
:102DA000A248FEF7C2FB4FF40071A048FEF7BDFB3E
:102DB00010BD30B5014601F01F04C1F34513CA0A26
:102DC000E50205EB43151544A8B230BD70B50446C5
:102DD0000D4698488088A0F51341413905D09548A3
:102DE0008088A0F5A641103973D192494889FFF730
:102DF0001BFF4FF480718D48FEF797FB4FF4007175
:102E00008A48FEF794FB21128948FEF797FB802140
:102E10008648FEF78CFB80218448FEF786FB4FF442
:102E200000718248FEF781FB4FF480717F48FEF706
:102E30007CFB4FF400717D48FEF779FBE1B27C48E2
:102E4000FEF77CFB80217948FEF771FB80217748F3
:102E5000FEF76BFB4FF400717448FEF766FB754993
:102E60008889FFF7E1FE4FF480717048FEF75DFB43
:102E70004FF400716D48FEF75AFB29126C48FEF7BB
:102E80005DFB80216948FEF752FB80216748FEF711
:102E90004CFB4FF400716548FEF747FB4FF480711F
:102EA0006248FEF742FB4FF400716048FEF73FFBBB
:102EB000E9B25F48FEF742FB80215C48FEF737FB32
:102EC00080215A48FEF731FB4FF400715748FEF756
:102ED0002CFB70BD2DE9F04105460E465548008893
:102EE000A84203DD53484088B04202DC0020BDE820
:102EF000F08131462846FFF769FF4E488088A0F5EB
:102F0000134141390BD04B488088A0F5D04104399A
:102F100005D048488088A0F5A641103903D12E205D
:102F2000FFF782FE0DE043488088A0F5AA411039E2
:102F300004D14FF43850FFF777FE02E02220FFF76C
:102F400073FE4FF088303A490860091D08604FF65B
:102F5000FF7037490C31086089153448FEF7E5FAEF
:102F60004FF400713148FEF7E2FA40212F48FEF796
:102F7000DEFA0120FFF738FE40212C48FEF7D5FA93
:102F800040212A48FEF7D3FA0120FFF72DFE2848FA
:102F9000FEF7BAFA044640212448FEF7C6FA25484F
:102FA0008088A0F5134141390BD022488088A0F5D4
:102FB000A641103905D01F488088A0F5AA411039D4
:102FC00011D140211948FEF7B2FA1948FEF79CFAD0
:102FD000804640211548FEF7A8FAE7B24FF6FF7089
:102FE00000EA072711E013488088A0F5D041043992
:102FF0000BD140210D48FEF79AFA40210B48FEF70D
:1030000094FA0B48FEF780FA04464FF40071074823
:10301000FEF78BFA4FF0333005490860091D086050
:103020004FF6FF7002490C31086005E000100140C6
:10303000000C0140D8000020FE488088A0F5134114
:10304000253917D0FB488088A0F58A41353911D041
:10305000F8488088A0F58A4131390BD0F54880883E
:10306000A0F50941893905D0F2488088A0F535419D
:10307000053901D120463AE7EE488088A0F5134192
:1030800041390BD0EB488088A0F5A641103905D016
:10309000E8488088A0F5AA41103907D1E012C002A3
:1030A000B91240EA411040EAE82020E72046FFF745
:1030B00080FE1CE710B5DF488088A0F51341413938
:1030C0000BD0DC488088A0F5D041043905D0D94820
:1030D0008088A0F5A641103903D12920FFF7A4FD6F
:1030E0000FE0D4488088A0F5AA41103904D14FF4EC
:1030F0002450FFF799FD04E040F273110720FFF719
:103100000AFE10BD10B5CB488088A0F513414139A7
:103110000BD0C8488088A0F5D041043905D0C548F7
:103120008088A0F5A641103903D12820FFF77CFD47
:103130000EE0C0488088A0F5AA41103904D14FF4B0
:103140002050FFF771FD03E000210720FFF7E3FDAA
:1031500010BD2DE9F041054600240027B5488079CF
:1031600001281ED1B3488088A0F5D041043918D079
:10317000082D15D2DFE805F00406080A0C0E10121F
:1031800006250DE007250BE0042509E0052507E0ED
:10319000012505E0002503E0032501E0022500BF2D
:1031A00000BFA4488088A0F51341413911D0A1483F
:1031B0008088A0F5D04104390BD09E488088A0F5C6
:1031C000A641103905D09B488088A0F5AA41103946
:1031D0007ED1082D1CD2DFE805F00406090C0F1281
:1031E000151800BF14E044F0800411E044F04004DE
:1031F0000EE044F0C0040BE044F0200408E044F08A
:10320000600405E044F0A00402E044F0E00400BFE4
:1032100000BF88488088A0F5AA41103902D14FF438
:10322000585700E0362783488088A0F5A64110391A
:1032300007D080488088A0F5AA41103901D044F019
:1032400008047C488088A0F5D041043901D144F0BD
:10325000020421463846FFF75EFD14F0200F03D12B
:103260007448807901280DD17248008871494988D5
:10327000884214DA6F48068840886E4908800846FC
:1032800046800CE06B4800886A494988884206DD20
:10329000684806884088674908800846468065482F
:1032A0008088A0F5AA4110397ED162494889FFF78C
:1032B000BBFC4FF480716048FEF737F94FF40071A2
:1032C0005D48FEF734F900215C48FEF737F900E06D
:1032D000F8E180215848FEF72AF980215648FEF788
:1032E00024F94FF400715448FEF71FF951494989F8
:1032F000491C88B2FFF798FC4FF480714E48FEF7E6
:1033000014F94FF400714C48FEF711F900214B48B5
:10331000FEF714F980214848FEF709F98021464854
:10332000FEF703F94FF400714348FEF7FEF84149F8
:103330004989891C88B2FFF777FC4FF480713E48B9
:10334000FEF7F3F84FF400713B48FEF7F0F8394808
:103350000088401EC0F30F213848FEF7EFF88021A7
:103360003548FEF7E4F880213348FEF7DEF84FF4E5
:1033700000713148FEF7D9F82E494989C91C88B235
:10338000FFF752FC4FF480712B48FEF7CEF84FF454
:1033900000712948FEF7CBF826480078401EC1B2DC
:1033A0002648FEF7CBF800E09DE080212248FEF79A
:1033B000BEF880212048FEF7B8F84FF400711E488F
:1033C000FEF7B3F81B498889FFF72EFC4FF4807194
:1033D0001948FEF7AAF84FF400711748FEF7A7F84E
:1033E00000211648FEF7AAF880211348FEF79FF83F
:1033F00080211148FEF799F84FF400710E48FEF74E
:1034000094F80C498989491C88B2FFF70DFC4FF4E8
:1034100080710948FEF789F84FF400710648FEF7FD
:1034200086F800210548FEF789F880210248FEF75A
:103430007EF805E0D800002000100140000C01409B
:103440008021FE48FEF771F84FF40071FB48FEF74B
:103450006CF8FB498989891C88B2FFF7E5FB4FF4BA
:103460008071F648FEF761F84FF40071F348FEF7FB
:103470005EF8F3484088401EC0F30F21F148FEF784
:103480005DF88021ED48FEF752F88021EB48FEF709
:103490004CF84FF40071E948FEF747F8E84989898C
:1034A000C91C88B2FFF7C0FB4FF48071E348FEF7F8
:1034B0003CF84FF40071E148FEF739F8E0488078B5
:1034C000401EC1B2DF48FEF739F88021DB48FEF725
:1034D0002EF88021D948FEF728F84FF40071D7481C
:1034E000FEF723F820E1D6494889FFF79DFB4FF40A
:1034F0008071D248FEF719F84FF40071CF48FEF7FB
:1035000016F80021CF48FEF719F88021CB48FEF7C6
:103510000EF88021C948FEF708F84FF40071C7483B
:10352000FEF703F84FF48071C448FDF7FEFF4FF437
:103530000071C248FDF7FBFF0021C248FDF7FEFF06
:103540008021BE48FDF7F3FF8021BC48FDF7EDFF69
:103550004FF40071B948FDF7E8FF4FF48071B748A8
:10356000FDF7E3FF4FF40071B448FDF7E0FFB44806
:103570000088401EC0F30F21B248FDF7DFFF802115
:10358000AE48FDF7D4FF8021AC48FDF7CEFF4FF4E5
:103590000071AA48FDF7C9FF4FF48071A748FDF7F5
:1035A000C4FF4FF40071A548FDF7C1FFA44800789F
:1035B000401EC1B2A348FDF7C1FF80219F48FDF71F
:1035C000B6FF80219D48FDF7B0FF4FF400719B4886
:1035D000FDF7ABFF9A498889FFF726FB4FF480710E
:1035E0009648FDF7A2FF4FF400719448FDF79FFF46
:1035F00000219448FDF7A2FF80219048FDF797FF36
:1036000080218E48FDF791FF4FF400718B48FDF744
:103610008CFF4FF480718948FDF787FF4FF40071EC
:103620008648FDF784FF00218648FDF787FF80214B
:103630008248FDF77CFF80218048FDF776FF4FF43C
:1036400000717E48FDF771FF4FF480717B48FDF7F4
:103650006CFF4FF400717948FDF769FF78484088A6
:10366000401EC0F30F217748FDF768FF80217348A3
:10367000FDF75DFF80217148FDF757FF4FF40071A2
:103680006E48FDF752FF4FF480716C48FDF74DFF17
:103690004FF400716948FDF74AFF69488078401E81
:1036A000C1B26848FDF74AFF80216448FDF73FFF3B
:1036B00080216248FDF739FF4FF400715F48FDF744
:1036C00034FF31E0082D1CD2DFE805F004070A0DB5
:1036D0000F12151844F0300413E044F0100410E009
:1036E00044F020040DE000BF0BE044F0380408E093
:1036F00044F0280405E044F0180402E044F0080413
:1037000000BF00BF4E488088A0F50941893904D127
:10371000112746F24000044302E0032744F480549A
:1037200021463846FFF7F7FABDE8F08170B5044648
:103730000D4629462046FFF749FBFFF716FB4FF4DD
:1037400080713E48FDF7F1FE4FF400713B48FDF7F4
:10375000EEFE3D4801883B48FDF7F0FE80213748EA
:10376000FDF7E5FE80213548FDF7DFFE4FF40071DF
:103770003248FDF7DAFE70BD70B504460D461646B8
:103780002F488088A0F51341413905D02C48808806
:10379000A0F5A64110397ED129494889FFF744FA9E
:1037A0004FF480712548FDF7C0FE4FF400712348A7
:1037B000FDF7BDFE21122348FDF7C0FE80211F4802
:1037C000FDF7B5FE80211D48FDF7AFFE4FF40071F7
:1037D0001A48FDF7AAFE4FF480711848FDF7A5FEC0
:1037E0004FF400711548FDF7A2FEE1B21548FDF750
:1037F000A5FE80211148FDF79AFE80210F48FDF7B4
:1038000094FE4FF400710D48FDF78FFE0C49888936
:10381000FFF70AFA4FF480710848FDF786FE4FF46F
:1038200000710648FDF783FE29120648FDF786FE63
:1038300080210248FDF77BFE802107E00010014057
:10384000D8000020000C014094000020FE48FDF745
:103850006CFE4FF40071FC48FDF767FE4FF4807179
:10386000F948FDF762FE4FF40071F748FDF75FFE7F
:10387000E9B2F648FDF762FE8021F348FDF757FEF6
:103880008021F148FDF751FE4FF40071EE48FDF73D
:103890004CFE13E0FFE7EE488079012804D1EC48A4
:1038A0000088401E001B84B2E94948892146FFF781
:1038B00032FAE74988892946FFF72DFA4FF48071DB
:1038C000E148FDF734FE4FF40071DF48FDF72FFEAD
:1038D000DF480189DD48FDF731FE8021DA48FDF738
:1038E00026FE8021D848FDF720FE4FF40071D6480F
:1038F000FDF71BFE4FF48071D348FDF716FE4FF421
:103900000071D148FDF713FE3146D048FDF716FE91
:103910008021CD48FDF70BFE8021CB48FDF705FE49
:103920004FF40071C848FDF700FE70BD10B50446A5
:10393000002C3BD1C6498871F02008804FF4A0705C
:10394000488008468088A0F5134141390BD0C04813
:103950008088A0F5D041043905D0BD488088A0F505
:10396000A64110391AD12C20B94908812A20488152
:103970002B20888108468088A0F5D041043905D0E5
:10398000B3488088A0F5A641103932D14FF4A07019
:10399000AF4908804FF4F07048802AE02220AC49FB
:1039A0000881202048812120888122E00120A84927
:1039B00088714FF4A0700880F02048800846808805
:1039C000A0F51341413905D0A1488088A0F5A64152
:1039D000103907D12C209E4908812A2048812B20AC
:1039E000888106E022209A490881212048812020F0
:1039F00088810020FFF7ADFB10BD2DE9FF5F044675
:103A00000D4616461F46A019401E86B2E819401EF4
:103A100087B28F488088A0F5134141390BD08C487C
:103A20008088A0F5A641103905D089488088A0F586
:103A3000D04104397ED186494889FFF7F5F84FF423
:103A400080718148FDF771FD4FF400717E48FDF7EC
:103A50006EFD21127D48FDF771FD80217A48FDF74A
:103A600066FD80217848FDF760FD4FF400717648CF
:103A7000FDF75BFD4FF480717348FDF756FD4FF481
:103A800000717148FDF753FDE1B27048FDF756FD36
:103A900080216D48FDF74BFD80216B48FDF745FD0A
:103AA0004FF400716848FDF740FD4FF4807166489F
:103AB000FDF73BFD4FF400716348FDF738FD31120F
:103AC0006248FDF73BFD80215F48FDF730FD802116
:103AD0005D48FDF72AFD4FF400715B48FDF725FDB9
:103AE0004FF480715848FDF720FD4FF4007156489F
:103AF000FDF71DFDF1B25548FDF720FD802152482C
:103B0000FDF715FD80215048FDF70FFD4FF40071C2
:103B10004D48FDF70AFD4E498889FFF785F84FF4B7
:103B200080714948FDF701FD4FF400714648FDF7EB
:103B3000FEFC00E062E029124448FDF7FFFC802112
:103B40004148FDF7F4FC80213F48FDF7EEFC4FF4BF
:103B500000713D48FDF7E9FC4FF480713A48FDF7EC
:103B6000E4FC4FF400713848FDF7E1FCE9B2374856
:103B7000FDF7E4FC80213448FDF7D9FC8021324870
:103B8000FDF7D3FC4FF400712F48FDF7CEFC4FF446
:103B900080712D48FDF7C9FC4FF400712A48FDF7EC
:103BA000C6FC39122948FDF7C9FC80212648FDF7DB
:103BB000BEFC80212448FDF7B8FC4FF40071224878
:103BC000FDF7B3FC4FF480711F48FDF7AEFC4FF4D6
:103BD00000711D48FDF7ABFCF9B21C48FDF7AEFCC7
:103BE00080211948FDF7A3FC80211748FDF79DFCB3
:103BF0004FF400711448FDF798FC5AE1144880888E
:103C0000A0F5AA4110397DD111494889FFF70CF878
:103C10004FF480710C48FDF788FC4FF400710A489E
:103C2000FDF785FC21120948FDF788FC8021064834
:103C3000FDF77DFC80210448FDF777FC4FF400710F
:103C40000148FDF772FC05E000100140000C014046
:103C5000D8000020FE494989491C88B2FEF7E4FFDC
:103C60004FF48071FB48FDF760FC4FF40071F94898
:103C7000FDF75DFCE1B2F848FDF760FC8021F548F6
:103C8000FDF755FC8021F348FDF74FFC4FF4007120
:103C9000F048FDF74AFCEE494989891C88B2FEF7D5
:103CA000C3FF4FF48071EB48FDF73FFC4FF4007108
:103CB000E848FDF73CFC3112E748FDF73FFC802166
:103CC000E448FDF734FC8021E248FDF72EFC4FF478
:103CD0000071E048FDF729FCDD494989C91C88B21B
:103CE000FEF7A2FF4FF48071DA48FDF71EFC4FF497
:103CF0000071D848FDF71BFCF1B2D748FDF71EFC58
:103D0000802100E08EE0D348FDF711FC8021D148EE
:103D1000FDF70BFC4FF40071CE48FDF706FCCC49D3
:103D20008889FEF781FF4FF48071CA48FDF7FDFBDB
:103D30004FF40071C748FDF7FAFB2912C648FDF79A
:103D4000FDFB8021C348FDF7F2FB8021C148FDF750
:103D5000ECFB4FF40071BF48FDF7E7FBBC498989D4
:103D6000491C88B2FEF760FF4FF48071B948FDF737
:103D7000DCFB4FF40071B748FDF7D9FBE9B2B64858
:103D8000FDF7DCFB8021B348FDF7D1FB8021B14872
:103D9000FDF7CBFB4FF40071AE48FDF7C6FBAC4915
:103DA0008989891C88B2FEF73FFF4FF48071A948CA
:103DB000FDF7BBFB4FF40071A648FDF7B8FB3912C5
:103DC000A548FDF7BBFB8021A248FDF7B0FB802191
:103DD000A048FDF7AAFB4FF400719E48FDF7A5FB34
:103DE0009B498989C91C88B2FEF71EFF4FF4807178
:103DF0009848FDF79AFB4FF400719648FDF797FB42
:103E0000F9B29548FDF79AFB80219248FDF78FFBA8
:103E100080219048FDF789FB4FF400718D48FDF734
:103E200084FB46E08A48807901280ED1A846B9462D
:103E300087480088801B401E80B20090844800881C
:103E4000001B401E1FFA80FB03E0A046B146009510
:103E5000BB467F488088A0F5094189390DD14FF0D4
:103E6000440A4420039048EA09201FFA80F8C1461A
:103E7000452002904620019007E04FF0500A512063
:103E80000390522002905320019041465046FEF785
:103E900042FF49460398FEF73EFF00990298FEF75D
:103EA0003AFF59460198FEF736FF29462046FEF7AD
:103EB0008DFFBDE8FF9F70B5044600266448058865
:103EC0004088454300210846FEF780FFFEF74DFF7E
:103ED00000BF1BE04FF480715E48FDF726FB4FF4F6
:103EE00000715C48FDF723FB21465B48FDF726FB8C
:103EF00080215848FDF71BFB80215648FDF715FB34
:103F00004FF400715348FDF710FB761CAE42E1D32D
:103F100070BD08B501211920FDF70EFD01214F48A4
:103F2000FDF727FB4FF4F860ADF8000010208DF886
:103F3000030003208DF8020069464648FDF74AFA5F
:103F40004FF4F8614348FDF7F0FA4FF6FF70ADF813
:103F5000000069464048FDF73DFA4FF6FF713E48C4
:103F6000FDF7E3FA3220FEF724FE01210020FEF7E0
:103F7000D2FE3220FEF71DFE0020FEF7EEFE344991
:103F8000888008468088FF280ADB08468088A0F5DC
:103F90007F41FF3904D02E488088B0F5134F7DD182
:103FA000D320FEF741FEFEF77BFEFEF779FEFEF71B
:103FB00077FE27498880084680884FF6FF7101EA1E
:103FC000002023498880FEF76BFE21498988084339
:103FD0001F49888008468088A0F51341413975D073
:103FE000BF20FEF721FEFEF75BFEFEF759FEFEF74F
:103FF00057FEFEF755FE16498880084680884FF622
:10400000FF7101EA002012498880FEF749FE10493D
:10401000898808430E49888008468088A0F5D041E9
:10402000043953D0D420FEF7FFFDFEF739FEFEF72A
:1040300037FEFEF735FE06498880084680884FF631
:10404000FF7101EA002002498880FEF729FE07E09F
:10405000D800002000100140000C01400002300098
:10406000FE4989880843FD49888008468088A0F574
:10407000A64110392AD04FF45A40FEF7D5FDFEF77D
:104080000FFE4FF45B40FEF7CFFDFEF709FEF3494C
:104090008880084680884FF6FF7100E016E001EA4C
:1040A0000020EE4988804FF45C40FEF7BDFDFEF72E
:1040B000F7FDEA4989880843E849888008468088EE
:1040C000B0F5004F02D145F210508880E348808857
:1040D000A0F5134141397CD1CF20FEF7A5FD00208A
:1040E000FEF7C0FDC120FEF7BDFD3020FEF7BAFD92
:1040F000ED20FEF799FD6420FEF7B4FD0320FEF7E6
:10410000B1FD1220FEF7AEFD8120FEF7ABFDE820E9
:10411000FEF78AFD8520FEF7A5FD1020FEF7A2FD23
:104120007A20FEF79FFDCB20FEF77EFD3920FEF7BB
:1041300099FD2C20FEF796FD0020FEF793FD34201C
:10414000FEF790FD0220FEF78DFDF720FEF76CFDD7
:104150002020FEF787FDEA20FEF766FD0020FEF72F
:1041600081FD0020FEF77EFDC020FEF75DFD1B20D7
:10417000FEF778FDC120FEF757FD0120FEF772FD26
:10418000C520FEF751FD3020FEF76CFD3020FEF714
:1041900069FDC720FEF748FDB720FEF763FD362016
:1041A000FEF742FD4820FEF75DFD3A20FEF73CFD9C
:1041B0005520FEF757FDB120FEF736FD0020FEF733
:1041C00051FD1A20FEF74EFDB620FEF72DFD0A2008
:1041D00000E097E0FEF746FDA220FEF743FDF22047
:1041E000FEF722FD0020FEF73DFD2620FEF71CFD18
:1041F0000120FEF737FDE020FEF716FD0F20FEF749
:1042000031FD2A20FEF72EFD2820FEF72BFD082089
:10421000FEF728FD0E20FEF725FD0820FEF722FD03
:104220005420FEF71FFDA920FEF71CFD4320FEF7DA
:1042300019FD0A20FEF716FD0F20FEF713FD0020E2
:10424000FEF710FD0020FEF70DFD0020FEF70AFD31
:104250000020FEF707FDE120FEF7E6FC0020FEF758
:1042600001FD1520FEF7FEFC1720FEF7FBFC0720E2
:10427000FEF7F8FC1120FEF7F5FC0620FEF7F2FC35
:104280002B20FEF7EFFC5620FEF7ECFC3C20FEF75F
:10429000E9FC0520FEF7E6FC1020FEF7E3FC0F200A
:1042A000FEF7E0FC3F20FEF7DDFC3F20FEF7DAFCE6
:1042B0000F20FEF7D7FC2B20FEF7B6FC0020FEF700
:1042C000D1FC0020FEF7CEFC0120FEF7CBFC3F2006
:1042D000FEF7C8FC2A20FEF7A7FC0020FEF7C2FC70
:1042E0000020FEF7BFFC0020FEF7BCFCEF20FEF72D
:1042F000B9FC1120FEF798FC7820FEF75AFC292023
:10430000FEF792FC0020FFF711FB012054490860E2
:104310004FF6FF70FFF7CFFD08BD2DE9FC5F0546A6
:104320000E4617469846DDF83090002001904B4825
:104330008088A0F5D041043929D1484880790128E6
:1043400025D1AB46354645480088C01B401E86B285
:10435000474642480088A0EB0B00401E1FFA80F839
:1043600000203E4988712A2048812B2088814346BD
:104370003A4631462846CDF80090FFF7CEFF01209F
:10438000364988712B2048812A20888134E0781BA7
:10439000401C80B2019034462CE021462846FEF7AE
:1043A00015FDFEF7E2FC4FF0000A1EE04FF48071AD
:1043B0002C48FDF7BAF84FF400712A48FDF7B7F81A
:1043C00049462948FDF7BAF880212648FDF7AFF89D
:1043D00080212448FDF7A9F84FF400712148FDF72A
:1043E000A4F80AF101001FFA80FA01988245DDDB8A
:1043F000601C84B24445D0DDBDE8FC9F2DE9F84F38
:1044000007460D4690469946DDF828B0A8EB070010
:10441000401C1FFA80FAA9EB0500401C80B20090F6
:10442000002435E0281981B23846FEF7CFFCFEF7AC
:104430009CFC002628E04FF480710A48FDF775F8CF
:104440004FF400710748FDF772F804FB0A603BF86F
:1044500010100548FDF772F8802107E0D800002011
:10446000A801224200100140000C0140FA48FDF76B
:104470005EF88021F848FDF758F84FF40071F648CF
:10448000FDF753F8701C86B25645D4DB601C84B22D
:1044900000988442C6DBBDE8F88F2DE9FF4F85B058
:1044A00081468A460020049003900798A0EB0905F6
:1044B0000898A0EB0A06CDF80890CDF804A0002DCE
:1044C00001DD012705E00DB9002702E04FF0FF37BD
:1044D0006D42002E02DD4FF0010806E016B94FF0E4
:1044E000000802E04FF0FF387642B54201DD2C466D
:1044F00000E034464FF0000B21E0019A91B2029A9D
:1045000090B2FFF713F904982844049003983044BC
:1045100003900498A04205DD0498001B04900298C3
:10452000384402900398A04205DD0398001B0390D5
:104530000198404401900BF101001FFA80FB601CC0
:104540008345DADD09B0BDE8F08F2DE9F04104467E
:104550000D4616461F462B46324629462046FFF793
:104560009CFF3B46224629462046FFF796FF3B46E6
:10457000324639462046FFF790FF3B4632462946F1
:104580003046FFF78AFFBDE8F0812DE9F047064687
:104590000F469046002445460320A0EB480948E01A
:1045A0003A1B91B2721B90B2FFF7C0F83A1B91B25E
:1045B000721990B2FFF7BAF87A1991B2321B90B221
:1045C000FFF7B4F83A1B91B2721B90B2FFF7AEF846
:1045D0007A1B91B2321B90B2FFF7A8F83A1991B248
:1045E000721990B2FFF7A2F87A1B91B2321990B209
:1045F000FFF79CF87A1991B2321990B2FFF796F84A
:104600003A1991B2721B90B2FFF790F8641CB9F19D
:10461000000F03DAA000801D814404E0601B8000CD
:104620000A3081446D1E7A1991B2321990B2FFF7A7
:104630007DF8AC42B4DDBDE8F0872DE9F84F0746C0
:10464000884616461C46C3462046E31704EB5373C0
:10465000DB1021464FEAE47C04EB5C7C4FEAEC0C77
:10466000B4EBCC0C02D04FF0010C01E04FF0000C89
:104670006344224604EBD27C4FEA6C0C03FB0CF340
:10468000DBB20093A6F12000C6B2002556E00C2C48
:1046900007D106EB4600714901EB800010F8059048
:1046A00013E0102C05D16E4800EB061010F80590B1
:1046B0000BE0182C07D106EBC6006A4901EB80001D
:1046C00010F8059001E0BDE8F88F4FF0000A2FE0E8
:1046D00019F0800F06D06448028841463846FFF73B
:1046E0004BF807E00A9828B96048028841463846E6
:1046F000FFF742F84FEA49604FEA106908F10100FC
:104700001FFA80F85A480088B84200DCDBE7A8EBC3
:104710000B00A04208D1D846781C87B254480088C4
:10472000B84200DCCFE706E00AF1010000F0FF0A22
:10473000BAF1080FCCDB00BF681CC5B200988542F7
:10474000A5DB00BFBFE710B50246012000E05043E3
:104750000B00A1F10104E1B2F9D110BD2DE9FF4F29
:1047600081B0074691461E460E9D4FF0000A002478
:1047700039E0301B401EC1B20A20FFF7E4FFB9FB4D
:10478000F0F00A21B0FBF1F201FB1208BAF1000FC0
:1047900016D1701EA04213DDB8F1000F0ED100201B
:1047A000AB4605EBDB71491001FB0471009088B248
:1047B0002B4620220299FFF740FF12E04FF0010A3A
:1047C0000020AB4605EBDB71491001FB0471009042
:1047D00088B208F13001CAB22B460299FFF72DFFCB
:1047E00000BF601CC4B2B442C3DB05B0BDE8F08FAB
:1047F0002DE9FF4F83B0064692461F46DDE910487B
:104800000020029000255CE0781B401EC1B20A2007
:10481000FFF799FFBAFBF0F00A21B0FBF1F201FBC0
:1048200012090298B0BB781EA84236DDB9F1000F1C
:1048300031D118F0800F1DD008F00100A34604EB21
:10484000DB71491001FB0561009088B223463022DC
:104850000499FFF7F2FE1CE00010014072580008B6
:10486000E65C0008D6620008940000209600002054
:10487000D800002008F00100A34604EBDB714910CA
:1048800001FB0561009088B2234620220499FFF7BE
:10489000D4FE14E001E00120029008F00100A346DC
:1048A00004EBDB71491001FB0561009088B209F14E
:1048B0003001CAB223460499FFF7BFFE00BF681C4F
:1048C000C5B2BD42A0DB07B0BDE8F08F2DE9F84FBF
:1048D00004460D4690469946DDE90A6704F0FF0A52
:1048E00008EB04001FFA80F809EB05001FFA80F9B5
:1048F00016E0444502DB5446A81985B24D4500DB5D
:1049000014E0002000903A78334629462046FFF70D
:1049100094FE304606EBD07104EB61018CB27F1C33
:1049200038787E2802DC38782028E2DA00BFBDE83B
:10493000F88F000070B50546002405E0601CC4B285
:10494000C82C01DD002070BD0221F848FDF7ABF94D
:104950000028F3D02946F548FDF752F9002405E078
:10496000601CC4B2C82C01DD0020ECE70121EF4837
:10497000FDF799F90028F3D0EC48FDF743F9C0B2F0
:10498000E1E700B587B0012141F21400FCF7D4FF44
:10499000E020ADF8040018208DF8070003208DF802
:1049A000060001A9E248FCF715FDE021E048FCF70C
:1049B000BCFD1020ADF804008DF8070001A9DC480B
:1049C000FCF708FD1021DA48FCF7AFFD1020ADF828
:1049D00004008DF8070001A9D648FCF7FBFC102164
:1049E000D448FCF7A2FD0020ADF808004FF4827017
:1049F000ADF80A000020ADF80C000220ADF80E0062
:104A00000120ADF810004002ADF812003820ADF8DA
:104A100014000020ADF816000720ADF8180002A918
:104A2000C248FDF717F80121C048FDF7B8F8FF208C
:104A3000FFF780FF07B000BD70B504460D4610219A
:104A4000BB48FCF774FD7E2000EA44063046FFF7C1
:104A500071FF2846FFF76EFF1021B548FCF765FD92
:104A600070BD70B5044600261021B148FCF75FFD0B
:104A70007E2000EA440040F080052846FFF75AFFF8
:104A8000FF20FFF757FF06461021A948FCF74DFD10
:104A9000304670BD70B505460C4600262846FFF727
:104AA000E0FF064646EA04012846FFF7C5FF70BD51
:104AB00070B505460C4600262846FFF7D2FF06468D
:104AC00026EA04012846FFF7B7FF70BD2DE9FE4F27
:104AD0000646884691469A46DDF830B0022002909C
:104AE0000020019000900C2E06D00E2E09D112202D
:104AF00001901020009005E0772001903020009078
:104B000000E000BF00BF019840F080010220FFF7E5
:104B100093FF80210420FFF7CBFF00210120FFF746
:104B20008BFF80210A20FFF7B5FF002505E018F86C
:104B300005100920FFF780FF6D1C4D45F7D3314666
:104B40000120FFF779FF0C2E03D180210D20FFF704
:104B5000A1FF4FF4167500BF0420FFF782FF044643
:104B60006D1E2DB114F0010F02D100980442F3D054
:104B700080210D20FFF79CFF95B30620FFF771FF02
:104B800010F01B0F2DD1002002900198204010F052
:104B9000010F01D0012002900C2E24D10A20FFF732
:104BA00060FF04460C20FFF75CFF00F007072FB101
:104BB000601E07EBC000CBF8000002E0E000CBF87D
:104BC000000004B90124122C00DD1224002505E0A8
:104BD0000920FFF746FF0AF805006D1CA542F7D330
:104BE00001E00220029080210C20FFF753FF0021FA
:104BF0000120FFF721FF0298BDE8FE8F70B588B055
:104C000005460C4608210846FFF752FF07210D20F4
:104C1000FFF712FF03211420FFF73CFF8DF8085027
:104C200007A802AB012202A900900C20FFF74EFF5B
:104C300006464EB90798102806D19DF80800207046
:104C40009DF80900607000E00226304608B070BD93
:104C5000F0B587B00546002708210846FFF728FF72
:104C600000210D20FFF7E8FE80210E20FFF720FF36
:104C700093208DF8040020208DF8050006A801ABD4
:104C8000022201A900900C20FFF720FF064686B9FA
:104C9000002407E001A8005D285501A8005D4740F9
:104CA000601CC4B2042CF5DB01A8005DB84200D042
:104CB000022680210E20FFF7EDFE304607B0F0BD42
:104CC0002DE9F04107468846154604210520FFF7E7
:104CD000EFFE00210120FFF7AFFE80210A20FFF741
:104CE000D9FE002405E0395D0920FFF7A5FE601C10
:104CF000C4B24445F7DB03210120FFF79DFEFF24EA
:104D000000BF0520FFF7ADFE0646601EC4B214B119
:104D100016F0040FF5D02220FFF7A3FE2870212003
:104D2000FFF79FFE6870BDE8F08100000030014091
:104D3000000801400010014070B588B0054693207E
:104D40008DF8080070208DF8090000208DF80E0005
:104D500000240BE0295D02AAA01C11549DF80E004E
:104D6000295D48408DF80E00601CC4B2042CF1DBB4
:104D70000DF10F02072102A8FFF7A2FF0821084644
:104D8000FFF796FE07A802AB092202A900900C20AB
:104D9000FFF79CFE064626B90798182801D1002681
:104DA00000E00226304608B070BD2DE9F04387B020
:104DB00006460F46904699468DF804608DF80570BA
:104DC000002406E018F8041001AAA01C1154601C6D
:104DD000C4B2062CF6DB002407E019F8041001AA7F
:104DE00004F108001154601CC4B2062CF5DB06A8BF
:104DF00001AB0C2201A900900E20FFF767FE0546CB
:104E00002DB90820FFF72DFE10F0080F00D1022564
:104E1000284607B0BDE8F083F0B587B005460E46DA
:104E200030208DF804008DF805500DF106020221A6
:104E300001A8FFF745FF06A801AB042201A90090D5
:104E40000C20FFF743FE074667B90698902809D162
:104E5000002404E001A8005D3055601CC4B2102C91
:104E6000F8DB00E00227384607B0F0BDF0B587B0A8
:104E700006460F46A0208DF804008DF805600DF160
:104E80000602022101A8FFF71BFF06A801AB0422BE
:104E900001A900900C20FFF719FE054645B90698B8
:104EA000042805D19DF8040000F00F000A2800D066
:104EB00002250DBB002404E0385D01A90855601CE3
:104EC000C4B2102CF8DB05AA102101A8FFF7F8FEE8
:104ED00006A801AB122201A900900C20FFF7F6FDF5
:104EE000054645B90698042805D19DF8040000F050
:104EF0000F000A2800D00225284607B0F0BD2DE992
:104F0000F04188B007460E4690468DF808708DF83F
:104F100009600DF10A02022102A8FFF7D1FE07A8DD
:104F200002AB042202A900900C20FFF7CFFD04463B
:104F300044B90798042805D19DF8080000F00F0037
:104F40000A2800D00224E4B9002505E018F805007D
:104F500002A94855681CC5B2102DF7DB03AA04212D
:104F600002A8FFF7ADFE0020079007A802AB0622BB
:104F700002A900900C20FFF7A9FD0446022C00D0E6
:104F80000024F4B9B0208DF808008DF809600DF107
:104F90000A02022102A8FFF793FE07A802AB04222F
:104FA00002A900900C20FFF791FD044644B9079830
:104FB000042805D19DF8080000F00F000A2800D051
:104FC0000224204608B0BDE8F08170B588B00546DF
:104FD0000E46C2208DF808008DF809500DF10A0226
:104FE000022102A8FFF76CFE07A802AB042202A967
:104FF00000900C20FFF76AFD044644B90798042886
:1050000005D19DF8080000F00F000A2800D0022406
:10501000CCB900208DF808008DF809008DF80A0041
:105020008DF80B0003AA042102A8FFF749FE07A888
:1050300002AB062202A900900C20FFF747FD0446B0
:10504000022C00D0002414B1022008B070BDB020A2
:105050008DF808008DF809600DF10A02022102A8FE
:10506000FFF72EFE07A802AB042202A900900C2035
:10507000FFF72CFD044644B90798042805D19DF894
:10508000080000F00F000A2800D002242046DCE7C8
:1050900000B587B050208DF8040000208DF8050081
:1050A0000DF10602022101A8FFF70AFE06A801ABD6
:1050B000042201A900900C20FFF708FD002007B092
:1050C00000BD10B510213B48FCF72FFA0120FDF779
:1050D0008BFD10213748FCF72AFA0120FDF784FDEB
:1050E00010213448FCF721FA0120FDF77DFD0F2146
:1050F0000120FFF7A1FC0120FDF776FD3D211120E5
:10510000FFF79AFC1E212D20FFF796FC00212C2092
:10511000FFF792FC8D212A20FFF78EFC3E212B20E9
:10512000FFF78AFC40211520FFF786FC002010BD08
:1051300010B51420FFF795FC044614F0030F03D1BB
:1051400003211420FFF7A6FC10BD10B50446412C26
:1051500025D108210846FFF7ABFC3D211120FFF7C0
:105160006BFC86211720FFF767FC7F212620FFF7C5
:1051700063FC1E212D20FFF75FFC00212C20FFF790
:105180005BFC8D212A20FFF757FC3E212B20FFF7E7
:1051900053FC0A20FDF70DFDFFF7CAFF01E00120D7
:1051A00010BD0020FCE710B503211420FFF780FCA0
:1051B00010BD00000010014010B501211420FCF7C3
:1051C000AEFB4FF4C050EF4908801020C870032098
:1051D0008870ED48FCF7FEF84FF40040E94908807C
:1051E0001020C87003208870E848FCF7F3F810BD61
:1051F00010B54FF40060E34908801020C870E24801
:10520000FCF7E8F810BD10B54FF40060DD490880E8
:105210000420C870DC48FCF7DDF810BD70B5054609
:1052200001241BE0254205D04FF40061D648FCF76D
:105230007CF904E04FF40061D348FCF778F94FF4AF
:105240008051D148FCF771F90220FDF7CDFC4FF4F5
:105250008051CD48FCF76BF96006040E002CE1D1BB
:1052600070BD70B50025012415E04FF40061C648FB
:10527000FCF741F900B125434FF48051C248FCF7D7
:1052800054F90220FDF7B0FC4FF48051BE48FCF702
:105290004EF96006040E002CE7D1284670BD70B5AB
:1052A00005460C46FFF7A4FF4FF40041B748FCF752
:1052B0003EF94FF48051B448FCF739F94FF40041FE
:1052C000B248FCF732F90320FDF78EFC2846FFF7C1
:1052D000A5FF2046FFF7A2FF0320FDF785FC4FF452
:1052E0000041AA48FCF723F970BD70B504460025BB
:1052F000FFF77EFF4FF40041A448FCF718F94FF484
:105300008051A148FCF713F94FF400419F48FCF786
:105310000CF90320FDF768FC44F00100FFF77EFF65
:10532000FFF771FFFFF79DFF05460320FDF75CFCCB
:105330004FF400419548FCF7FAF8284670BD10B5C7
:1053400004468C20FFF7D1FF20708A20FFF7CDFFA5
:1053500060708820FFF7C9FFA0708620FFF7C5FFA7
:10536000E0708420FFF7C1FF20718220FFF7BDFFAE
:1053700060718020FFF7B9FFA07110BD70B50446C1
:10538000C02040EA4400C5B22846FFF7AEFF0646FB
:10539000304670BD70B504460D4600218E20FFF7E3
:1053A0007EFFC02040EA4400C6B229463046FFF7DF
:1053B00076FF80218E20FFF772FF70BD2DE9F0414E
:1053C00005460F4616461E2E01DDBDE8F08100247D
:1053D00008E0791C2144C8B2FFF7D0FF28706D1C8B
:1053E000601CC4B2B442F4DB00BFEEE72DE9F0412B
:1053F00005460F4616461E2E01DDBDE8F08100244D
:1054000008E015F8011B7A1C2244D0B2FFF7C2FF56
:10541000601CC4B2B442F4DB00BFEEE710B5044632
:10542000FFF7E6FE4FF400415848FCF780F84FF4D0
:1054300080515548FCF77BF84FF400415348FCF786
:1054400074F80320FDF7D0FBBF20FFF7E7FEFFF75E
:10545000DAFEFFF706FF6071FFF703FF2071FFF729
:1054600000FFE070FFF7FDFEA070FFF7FAFE60702E
:10547000FFF7F7FEA071FFF7F4FE2070FFF7F1FED3
:105480000320FDF7B1FB4FF400414048FCF74FF813
:1054900010BD10B5044600218E20FFF700FFFFF776
:1054A000A7FE4FF400413948FCF741F84FF4805112
:1054B0003548FCF73CF84FF400413448FCF735F828
:1054C0000320FDF791FBBE20FFF7A8FE6079FFF7F0
:1054D000A5FE2079FFF7A2FEE078FFF79FFEA078F7
:1054E000FFF79CFE6078FFF799FEA079FFF796FE24
:1054F0002078FFF793FE8020FFF790FE0320FDF752
:1055000073FB4FF400412148FCF711F810BD1CB5A6
:10551000FFF752FE0020FFF731FF044694F0A5008C
:105520002FD0A5210020FFF735FF00218E20FFF7A7
:10553000B6FE03219020FFF7B2FE00218420FFF782
:10554000AEFE00218020FFF7AAFE80218E20FFF70B
:10555000A6FE17208DF8000005208DF8010016200A
:105560008DF8020022208DF8030017208DF804002A
:1055700000208DF8050002208DF806006846FFF730
:1055800088FF1CBD98000020001001400008014069
:105590002DE9F04105460E46144668480788048008
:1055A00031462846FEF7C2F864480780BDE8F0811E
:1055B0002DE9F05F07460D4616469846AB46002497
:1055C0003BE0102C05DA5E4901EB461010F8049020
:1055D00009E0012000EB4600594901EB0011A4F15C
:1055E000100011F800904FF0000A20E019F0800F31
:1055F00005D0424629463846FFF7CAFF05E0514824
:10560000028829463846FFF7C3FF4FEA49604FEA50
:105610001069681C85B2A5EB0B00102803D15D460C
:10562000781C87B206E00AF1010000F0FF0ABAF127
:10563000080FDBDB00BF601CC4B2202CC1DBBDE85F
:10564000F09F2DE9F05F07460D4616469846AB469B
:10565000002450E0182C09DA06EB460000EB40006D
:10566000394901EBC00010F804901AE0302C0CDA34
:1056700006EB4600401C00EB4000334901EBC00143
:10568000A4F1180011F800900BE006EB4600801C16
:1056900000EB40002C4901EBC001A4F1300011F8EF
:1056A00000904FF0000A20E019F0800F05D042462C
:1056B00029463846FFF76CFF05E022480288294654
:1056C0003846FFF765FF4FEA49604FEA1069681CEA
:1056D00085B2A5EB0B00182803D15D46781C87B274
:1056E00006E00AF1010000F0FF0ABAF1080FDBDB67
:1056F00000BF601CC4B2482CACDBBDE8F09F70B5A5
:10570000322005460646002415E04FF47843224631
:1057100096213046FFF74CFF4FF478432246AA21EA
:105720002846FFF78EFF06F11000C6B205F11800FB
:10573000C5B2601CC4B2072CE7DB70BD940000202A
:1057400032700008960000203274000808B54FF44B
:105750008060FBF771FD1C208DF8000000208DF8A3
:10576000010001208DF802008DF803006846FBF768
:1057700068FD08BD0EB5FFF7E9FF01210846FCF7FB
:10578000E8F84FF08040FCF7C5FA41F28730ADF8F9
:10579000040040F2CF20ADF800000020ADF8060074
:1057A000ADF8020069464FF08040FCF787FB01210D
:1057B0008807FDF7A5F9012211469007FCF7F5FED1
:1057C00001218807FCF7D6FE0EBD000008B50121B7
:1057D0001020FCF7B1F82020ADF8000010208DF863
:1057E000030003208DF8020069460448FBF7F2FD30
:1057F00020210248FBF79BFE08BD0000001001407D
:10580000704770477047754600F028F8AE460500AF
:105810006946534620F00700854618B020B5FBF7CF
:10582000F9FCBDE820404FF000064FF000074FF0B4
:1058300000084FF0000B21F00701AC46ACE8C009AE
:10584000ACE8C009ACE8C009ACE8C0098D467047B7
:105850000446AFF300802046FAF7B1FC00487047D9
:10586000E800002001491820ABBEFEE72600020038
:105870007047000000000000000000000000000071
:1058800000003F4000000000000000003000400029
:1058900030004000000009000BC03D000BC03D007F
:1058A000090018C024407FE0224031800000180029
:1058B00024C01B000D803240018003801C40274023
:1058C0001C80074000401000600000000000000045
:1058D00000000000000000001F8020404020000069
:1058E000402020401F8000000000090006001F80AB
:1058F000060009000000040004003F8004000400CA
:105900000000001000600000000000000000040023
:105910000400040004000400000000000040000037
:10592000000000000000002001C006003800400018
:1059300000001F802040204020401F800000000009
:1059400010403FC000400000000018C0214022402D
:1059500024401840000010802040244024401B8038
:10596000000002000D0011003FC0014000003C801B
:10597000244024402440238000001F8024402440F1
:105980003440038000003000200027C03800200091
:1059900000001B802440244024401B8000001C0089
:1059A00022C0224022401F8000000000000008406A
:1059B0000000000000000000000004600000000083
:1059C0000000000004000A0011002080404009008F
:1059D0000900090009000900000000004040208083
:1059E00011000A00040018002000234024001800C1
:1059F00000001F802040274029401F400000004039
:105A000007C039000F0001C0004020403FC02440C3
:105A100024401B8000001F80204020402040308018
:105A2000000020403FC0204020401F800000204058
:105A30003FC024402E4030C0000020403FC02440E2
:105A40002E00300000000F001080204022403380E4
:105A5000020020403FC0040004003FC0204020401E
:105A600020403FC020402040000000602020202037
:105A70003FC02000200020403FC024400B0030C029
:105A8000204020403FC020400040004000C03FC0B8
:105A90003C0003C03C003FC0000020403FC00C4021
:105AA00023003FC020001F802040204020401F8056
:105AB000000020403FC024402400180000001F8048
:105AC0002140214020E01FA0000020403FC0244092
:105AD000260019C0004018C02440244022403180D4
